{
  "_format": "hh-sol-artifact-1",
  "contractName": "EnergyListing",
  "sourceName": "contracts/EnergyListing.sol",
  "abi": [
    {
      "inputs": [
        {
          "internalType": "address",
          "name": "_societyRegistryAddress",
          "type": "address"
        }
      ],
      "stateMutability": "nonpayable",
      "type": "constructor"
    },
    {
      "anonymous": false,
      "inputs": [
        {
          "indexed": true,
          "internalType": "uint256",
          "name": "id",
          "type": "uint256"
        },
        {
          "indexed": true,
          "internalType": "uint256",
          "name": "societyId",
          "type": "uint256"
        }
      ],
      "name": "ListingCancelled",
      "type": "event"
    },
    {
      "anonymous": false,
      "inputs": [
        {
          "indexed": true,
          "internalType": "uint256",
          "name": "id",
          "type": "uint256"
        },
        {
          "indexed": true,
          "internalType": "uint256",
          "name": "societyId",
          "type": "uint256"
        },
        {
          "indexed": false,
          "internalType": "uint256",
          "name": "availableKwh",
          "type": "uint256"
        },
        {
          "indexed": false,
          "internalType": "uint256",
          "name": "pricePerKwh",
          "type": "uint256"
        },
        {
          "indexed": false,
          "internalType": "string",
          "name": "ipfsHash",
          "type": "string"
        },
        {
          "indexed": false,
          "internalType": "uint8",
          "name": "listingType",
          "type": "uint8"
        },
        {
          "indexed": false,
          "internalType": "uint256",
          "name": "createdAt",
          "type": "uint256"
        }
      ],
      "name": "ListingCreated",
      "type": "event"
    },
    {
      "anonymous": false,
      "inputs": [
        {
          "indexed": true,
          "internalType": "uint256",
          "name": "id",
          "type": "uint256"
        },
        {
          "indexed": false,
          "internalType": "uint256",
          "name": "remainingKwh",
          "type": "uint256"
        }
      ],
      "name": "ListingUpdated",
      "type": "event"
    },
    {
      "inputs": [
        {
          "internalType": "uint256",
          "name": "listingId",
          "type": "uint256"
        }
      ],
      "name": "cancelListing",
      "outputs": [],
      "stateMutability": "nonpayable",
      "type": "function"
    },
    {
      "inputs": [
        {
          "internalType": "uint256",
          "name": "availableKwh",
          "type": "uint256"
        },
        {
          "internalType": "uint256",
          "name": "pricePerKwh",
          "type": "uint256"
        },
        {
          "internalType": "string",
          "name": "ipfsHash",
          "type": "string"
        },
        {
          "internalType": "enum EnergyListing.ListingType",
          "name": "listingType",
          "type": "uint8"
        }
      ],
      "name": "createListing",
      "outputs": [],
      "stateMutability": "nonpayable",
      "type": "function"
    },
    {
      "inputs": [
        {
          "internalType": "uint256",
          "name": "societyId",
          "type": "uint256"
        }
      ],
      "name": "getActiveListingsForMembers",
      "outputs": [
        {
          "components": [
            {
              "internalType": "uint256",
              "name": "id",
              "type": "uint256"
            },
            {
              "internalType": "uint256",
              "name": "societyId",
              "type": "uint256"
            },
            {
              "internalType": "address",
              "name": "societyWallet",
              "type": "address"
            },
            {
              "internalType": "uint256",
              "name": "availableKwh",
              "type": "uint256"
            },
            {
              "internalType": "uint256",
              "name": "pricePerKwh",
              "type": "uint256"
            },
            {
              "internalType": "string",
              "name": "ipfsHash",
              "type": "string"
            },
            {
              "internalType": "enum EnergyListing.ListingType",
              "name": "listingType",
              "type": "uint8"
            },
            {
              "internalType": "bool",
              "name": "isActive",
              "type": "bool"
            },
            {
              "internalType": "uint256",
              "name": "createdAt",
              "type": "uint256"
            }
          ],
          "internalType": "struct EnergyListing.Listing[]",
          "name": "",
          "type": "tuple[]"
        }
      ],
      "stateMutability": "view",
      "type": "function"
    },
    {
      "inputs": [],
      "name": "getActiveListingsForSocieties",
      "outputs": [
        {
          "components": [
            {
              "internalType": "uint256",
              "name": "id",
              "type": "uint256"
            },
            {
              "internalType": "uint256",
              "name": "societyId",
              "type": "uint256"
            },
            {
              "internalType": "address",
              "name": "societyWallet",
              "type": "address"
            },
            {
              "internalType": "uint256",
              "name": "availableKwh",
              "type": "uint256"
            },
            {
              "internalType": "uint256",
              "name": "pricePerKwh",
              "type": "uint256"
            },
            {
              "internalType": "string",
              "name": "ipfsHash",
              "type": "string"
            },
            {
              "internalType": "enum EnergyListing.ListingType",
              "name": "listingType",
              "type": "uint8"
            },
            {
              "internalType": "bool",
              "name": "isActive",
              "type": "bool"
            },
            {
              "internalType": "uint256",
              "name": "createdAt",
              "type": "uint256"
            }
          ],
          "internalType": "struct EnergyListing.Listing[]",
          "name": "",
          "type": "tuple[]"
        }
      ],
      "stateMutability": "view",
      "type": "function"
    },
    {
      "inputs": [
        {
          "internalType": "uint256",
          "name": "listingId",
          "type": "uint256"
        }
      ],
      "name": "getListing",
      "outputs": [
        {
          "components": [
            {
              "internalType": "uint256",
              "name": "id",
              "type": "uint256"
            },
            {
              "internalType": "uint256",
              "name": "societyId",
              "type": "uint256"
            },
            {
              "internalType": "address",
              "name": "societyWallet",
              "type": "address"
            },
            {
              "internalType": "uint256",
              "name": "availableKwh",
              "type": "uint256"
            },
            {
              "internalType": "uint256",
              "name": "pricePerKwh",
              "type": "uint256"
            },
            {
              "internalType": "string",
              "name": "ipfsHash",
              "type": "string"
            },
            {
              "internalType": "enum EnergyListing.ListingType",
              "name": "listingType",
              "type": "uint8"
            },
            {
              "internalType": "bool",
              "name": "isActive",
              "type": "bool"
            },
            {
              "internalType": "uint256",
              "name": "createdAt",
              "type": "uint256"
            }
          ],
          "internalType": "struct EnergyListing.Listing",
          "name": "",
          "type": "tuple"
        }
      ],
      "stateMutability": "view",
      "type": "function"
    },
    {
      "inputs": [
        {
          "internalType": "uint256",
          "name": "societyId",
          "type": "uint256"
        }
      ],
      "name": "getSocietyListingIds",
      "outputs": [
        {
          "internalType": "uint256[]",
          "name": "",
          "type": "uint256[]"
        }
      ],
      "stateMutability": "view",
      "type": "function"
    },
    {
      "inputs": [
        {
          "internalType": "uint256",
          "name": "",
          "type": "uint256"
        }
      ],
      "name": "listingById",
      "outputs": [
        {
          "internalType": "uint256",
          "name": "id",
          "type": "uint256"
        },
        {
          "internalType": "uint256",
          "name": "societyId",
          "type": "uint256"
        },
        {
          "internalType": "address",
          "name": "societyWallet",
          "type": "address"
        },
        {
          "internalType": "uint256",
          "name": "availableKwh",
          "type": "uint256"
        },
        {
          "internalType": "uint256",
          "name": "pricePerKwh",
          "type": "uint256"
        },
        {
          "internalType": "string",
          "name": "ipfsHash",
          "type": "string"
        },
        {
          "internalType": "enum EnergyListing.ListingType",
          "name": "listingType",
          "type": "uint8"
        },
        {
          "internalType": "bool",
          "name": "isActive",
          "type": "bool"
        },
        {
          "internalType": "uint256",
          "name": "createdAt",
          "type": "uint256"
        }
      ],
      "stateMutability": "view",
      "type": "function"
    },
    {
      "inputs": [],
      "name": "listingCount",
      "outputs": [
        {
          "internalType": "uint256",
          "name": "",
          "type": "uint256"
        }
      ],
      "stateMutability": "view",
      "type": "function"
    },
    {
      "inputs": [
        {
          "internalType": "uint256",
          "name": "",
          "type": "uint256"
        },
        {
          "internalType": "uint256",
          "name": "",
          "type": "uint256"
        }
      ],
      "name": "listingsBySociety",
      "outputs": [
        {
          "internalType": "uint256",
          "name": "",
          "type": "uint256"
        }
      ],
      "stateMutability": "view",
      "type": "function"
    },
    {
      "inputs": [
        {
          "internalType": "uint256",
          "name": "listingId",
          "type": "uint256"
        },
        {
          "internalType": "uint256",
          "name": "purchasedKwh",
          "type": "uint256"
        }
      ],
      "name": "reduceAvailableKwh",
      "outputs": [],
      "stateMutability": "nonpayable",
      "type": "function"
    },
    {
      "inputs": [],
      "name": "societyRegistry",
      "outputs": [
        {
          "internalType": "contract SocietyRegistry",
          "name": "",
          "type": "address"
        }
      ],
      "stateMutability": "view",
      "type": "function"
    }
  ],
  "bytecode": "0x6080604052600060015534801561001557600080fd5b50604051612949380380612949833981810160405281019061003791906100e0565b806000806101000a81548173ffffffffffffffffffffffffffffffffffffffff021916908373ffffffffffffffffffffffffffffffffffffffff1602179055505061010d565b600080fd5b600073ffffffffffffffffffffffffffffffffffffffff82169050919050565b60006100ad82610082565b9050919050565b6100bd816100a2565b81146100c857600080fd5b50565b6000815190506100da816100b4565b92915050565b6000602082840312156100f6576100f561007d565b5b6000610104848285016100cb565b91505092915050565b61282d8061011c6000396000f3fe608060405234801561001057600080fd5b50600436106100a95760003560e01c80635a85800f116100715780635a85800f146101665780635f38267414610196578063a17548b2146101c6578063a9b07c26146101fe578063b9032fda1461021c578063ea4baba614610238576100a9565b8063107a274a146100ae57806328ac9922146100de578063305a67a81461010e5780633466f8cc1461012a5780634637631314610148575b600080fd5b6100c860048036038101906100c39190611711565b610254565b6040516100d59190611975565b60405180910390f35b6100f860048036038101906100f39190611711565b610443565b6040516101059190611b1e565b60405180910390f35b61012860048036038101906101239190611711565b61095a565b005b610132610aa7565b60405161013f9190611b1e565b60405180910390f35b610150610f33565b60405161015d9190611b9f565b60405180910390f35b610180600480360381019061017b9190611bba565b610f57565b60405161018d9190611c09565b60405180910390f35b6101b060048036038101906101ab9190611711565b610f88565b6040516101bd9190611cd3565b60405180910390f35b6101e060048036038101906101db9190611711565b610ff3565b6040516101f599989796959493929190611d6c565b60405180910390f35b610206611103565b6040516102139190611c09565b60405180910390f35b61023660048036038101906102319190611f5a565b611109565b005b610252600480360381019061024d9190611bba565b61151c565b005b61025c611651565b60008211801561026e57506001548211155b6102ad576040517f08c379a00000000000000000000000000000000000000000000000000000000081526004016102a490612029565b60405180910390fd5b600260008381526020019081526020016000206040518061012001604052908160008201548152602001600182015481526020016002820160009054906101000a900473ffffffffffffffffffffffffffffffffffffffff1673ffffffffffffffffffffffffffffffffffffffff1673ffffffffffffffffffffffffffffffffffffffff168152602001600382015481526020016004820154815260200160058201805461035a90612078565b80601f016020809104026020016040519081016040528092919081815260200182805461038690612078565b80156103d35780601f106103a8576101008083540402835291602001916103d3565b820191906000526020600020905b8154815290600101906020018083116103b657829003601f168201915b505050505081526020016006820160009054906101000a900460ff1660018111156104015761040061181e565b5b60018111156104135761041261181e565b5b81526020016006820160019054906101000a900460ff161515151581526020016007820154815250509050919050565b60606000600360008481526020019081526020016000208054806020026020016040519081016040528092919081815260200182805480156104a457602002820191906000526020600020905b815481526020019060010190808311610490575b505050505090506000805b82518110156106c0576000600260008584815181106104d1576104d06120a9565b5b602002602001015181526020019081526020016000206040518061012001604052908160008201548152602001600182015481526020016002820160009054906101000a900473ffffffffffffffffffffffffffffffffffffffff1673ffffffffffffffffffffffffffffffffffffffff1673ffffffffffffffffffffffffffffffffffffffff168152602001600382015481526020016004820154815260200160058201805461058190612078565b80601f01602080910402602001604051908101604052809291908181526020018280546105ad90612078565b80156105fa5780601f106105cf576101008083540402835291602001916105fa565b820191906000526020600020905b8154815290600101906020018083116105dd57829003601f168201915b505050505081526020016006820160009054906101000a900460ff1660018111156106285761062761181e565b5b600181111561063a5761063961181e565b5b81526020016006820160019054906101000a900460ff1615151515815260200160078201548152505090508060e00151801561069e5750600060018111156106855761068461181e565b5b8160c00151600181111561069c5761069b61181e565b5b145b156106b25782806106ae90612107565b9350505b5080806001019150506104af565b5060008167ffffffffffffffff8111156106dd576106dc611e0a565b5b60405190808252806020026020018201604052801561071657816020015b610703611651565b8152602001906001900390816106fb5790505b5090506000805b845181101561094d5760006002600087848151811061073f5761073e6120a9565b5b602002602001015181526020019081526020016000206040518061012001604052908160008201548152602001600182015481526020016002820160009054906101000a900473ffffffffffffffffffffffffffffffffffffffff1673ffffffffffffffffffffffffffffffffffffffff1673ffffffffffffffffffffffffffffffffffffffff16815260200160038201548152602001600482015481526020016005820180546107ef90612078565b80601f016020809104026020016040519081016040528092919081815260200182805461081b90612078565b80156108685780601f1061083d57610100808354040283529160200191610868565b820191906000526020600020905b81548152906001019060200180831161084b57829003601f168201915b505050505081526020016006820160009054906101000a900460ff1660018111156108965761089561181e565b5b60018111156108a8576108a761181e565b5b81526020016006820160019054906101000a900460ff1615151515815260200160078201548152505090508060e00151801561090c5750600060018111156108f3576108f261181e565b5b8160c00151600181111561090a5761090961181e565b5b145b1561093f5780848481518110610925576109246120a9565b5b6020026020010181905250828061093b90612107565b9350505b50808060010191505061071d565b5081945050505050919050565b60006002600083815260200190815260200160002090508060060160019054906101000a900460ff166109c2576040517f08c379a00000000000000000000000000000000000000000000000000000000081526004016109b99061219b565b60405180910390fd5b3373ffffffffffffffffffffffffffffffffffffffff168160020160009054906101000a900473ffffffffffffffffffffffffffffffffffffffff1673ffffffffffffffffffffffffffffffffffffffff1614610a54576040517f08c379a0000000000000000000000000000000000000000000000000000000008152600401610a4b9061222d565b60405180910390fd5b60008160060160016101000a81548160ff0219169083151502179055508060010154827fafd0a85a3f09cebbc7d9fcde08e8a7d0ebb0aa7d768a030915c3816a053d3c7a60405160405180910390a35050565b6060600080600190505b6001548111610cad576000600260008381526020019081526020016000206040518061012001604052908160008201548152602001600182015481526020016002820160009054906101000a900473ffffffffffffffffffffffffffffffffffffffff1673ffffffffffffffffffffffffffffffffffffffff1673ffffffffffffffffffffffffffffffffffffffff1681526020016003820154815260200160048201548152602001600582018054610b6990612078565b80601f0160208091040260200160405190810160405280929190818152602001828054610b9590612078565b8015610be25780601f10610bb757610100808354040283529160200191610be2565b820191906000526020600020905b815481529060010190602001808311610bc557829003601f168201915b505050505081526020016006820160009054906101000a900460ff166001811115610c1057610c0f61181e565b5b6001811115610c2257610c2161181e565b5b81526020016006820160019054906101000a900460ff1615151515815260200160078201548152505090508060e001518015610c855750600180811115610c6c57610c6b61181e565b5b8160c001516001811115610c8357610c8261181e565b5b145b15610c99578280610c9590612107565b9350505b508080610ca590612107565b915050610ab1565b5060008167ffffffffffffffff811115610cca57610cc9611e0a565b5b604051908082528060200260200182016040528015610d0357816020015b610cf0611651565b815260200190600190039081610ce85790505b509050600080600190505b6001548111610f29576000600260008381526020019081526020016000206040518061012001604052908160008201548152602001600182015481526020016002820160009054906101000a900473ffffffffffffffffffffffffffffffffffffffff1673ffffffffffffffffffffffffffffffffffffffff1673ffffffffffffffffffffffffffffffffffffffff1681526020016003820154815260200160048201548152602001600582018054610dc690612078565b80601f0160208091040260200160405190810160405280929190818152602001828054610df290612078565b8015610e3f5780601f10610e1457610100808354040283529160200191610e3f565b820191906000526020600020905b815481529060010190602001808311610e2257829003601f168201915b505050505081526020016006820160009054906101000a900460ff166001811115610e6d57610e6c61181e565b5b6001811115610e7f57610e7e61181e565b5b81526020016006820160019054906101000a900460ff1615151515815260200160078201548152505090508060e001518015610ee25750600180811115610ec957610ec861181e565b5b8160c001516001811115610ee057610edf61181e565b5b145b15610f155780848481518110610efb57610efa6120a9565b5b60200260200101819052508280610f1190612107565b9350505b508080610f2190612107565b915050610d0e565b5081935050505090565b60008054906101000a900473ffffffffffffffffffffffffffffffffffffffff1681565b60036020528160005260406000208181548110610f7357600080fd5b90600052602060002001600091509150505481565b606060036000838152602001908152602001600020805480602002602001604051908101604052809291908181526020018280548015610fe757602002820191906000526020600020905b815481526020019060010190808311610fd3575b50505050509050919050565b60026020528060005260406000206000915090508060000154908060010154908060020160009054906101000a900473ffffffffffffffffffffffffffffffffffffffff169080600301549080600401549080600501805461105490612078565b80601f016020809104026020016040519081016040528092919081815260200182805461108090612078565b80156110cd5780601f106110a2576101008083540402835291602001916110cd565b820191906000526020600020905b8154815290600101906020018083116110b057829003601f168201915b5050505050908060060160009054906101000a900460ff16908060060160019054906101000a900460ff16908060070154905089565b60015481565b60008054906101000a900473ffffffffffffffffffffffffffffffffffffffff1673ffffffffffffffffffffffffffffffffffffffff1663af65d74d336040518263ffffffff1660e01b8152600401611162919061224d565b602060405180830381865afa15801561117f573d6000803e3d6000fd5b505050506040513d601f19601f820116820180604052508101906111a39190612294565b6111e2576040517f08c379a00000000000000000000000000000000000000000000000000000000081526004016111d990612333565b60405180910390fd5b60008411611225576040517f08c379a000000000000000000000000000000000000000000000000000000000815260040161121c9061239f565b60405180910390fd5b60008311611268576040517f08c379a000000000000000000000000000000000000000000000000000000000815260040161125f9061240b565b60405180910390fd5b6001600081548092919061127b90612107565b919050555060008060009054906101000a900473ffffffffffffffffffffffffffffffffffffffff1673ffffffffffffffffffffffffffffffffffffffff1663de9c86e1336040518263ffffffff1660e01b81526004016112dc919061224d565b602060405180830381865afa1580156112f9573d6000803e3d6000fd5b505050506040513d601f19601f8201168201806040525081019061131d9190612440565b905060405180610120016040528060015481526020018281526020013373ffffffffffffffffffffffffffffffffffffffff16815260200186815260200185815260200184815260200183600181111561137a5761137961181e565b5b815260200160011515815260200142815250600260006001548152602001908152602001600020600082015181600001556020820151816001015560408201518160020160006101000a81548173ffffffffffffffffffffffffffffffffffffffff021916908373ffffffffffffffffffffffffffffffffffffffff160217905550606082015181600301556080820151816004015560a0820151816005019081611425919061260f565b5060c08201518160060160006101000a81548160ff021916908360018111156114515761145061181e565b5b021790555060e08201518160060160016101000a81548160ff0219169083151502179055506101008201518160070155905050600360008281526020019081526020016000206001549080600181540180825580915050600190039060005260206000200160009091909190915055806001547f8579e4884769c1db8bdceeeab5c6fb843d6760be695e21db629387b83fded7398787878760018111156114fb576114fa61181e565b5b4260405161150d9594939291906126fd565b60405180910390a35050505050565b60006002600084815260200190815260200160002090508060060160019054906101000a900460ff16611584576040517f08c379a000000000000000000000000000000000000000000000000000000000815260040161157b9061219b565b60405180910390fd5b81816003015410156115cb576040517f08c379a00000000000000000000000000000000000000000000000000000000081526004016115c2906127a3565b60405180910390fd5b818160030160008282546115df91906127c3565b9250508190555060008160030154036116105760008160060160016101000a81548160ff0219169083151502179055505b827f66bcde9f7aec9b81719a4fdec54cbafbf6c834d1f2f989d9cd2134dab8d0c0de82600301546040516116449190611c09565b60405180910390a2505050565b6040518061012001604052806000815260200160008152602001600073ffffffffffffffffffffffffffffffffffffffff168152602001600081526020016000815260200160608152602001600060018111156116b1576116b061181e565b5b8152602001600015158152602001600081525090565b6000604051905090565b600080fd5b600080fd5b6000819050919050565b6116ee816116db565b81146116f957600080fd5b50565b60008135905061170b816116e5565b92915050565b600060208284031215611727576117266116d1565b5b6000611735848285016116fc565b91505092915050565b611747816116db565b82525050565b600073ffffffffffffffffffffffffffffffffffffffff82169050919050565b60006117788261174d565b9050919050565b6117888161176d565b82525050565b600081519050919050565b600082825260208201905092915050565b60005b838110156117c85780820151818401526020810190506117ad565b60008484015250505050565b6000601f19601f8301169050919050565b60006117f08261178e565b6117fa8185611799565b935061180a8185602086016117aa565b611813816117d4565b840191505092915050565b7f4e487b7100000000000000000000000000000000000000000000000000000000600052602160045260246000fd5b6002811061185e5761185d61181e565b5b50565b600081905061186f8261184d565b919050565b600061187f82611861565b9050919050565b61188f81611874565b82525050565b60008115159050919050565b6118aa81611895565b82525050565b6000610120830160008301516118c9600086018261173e565b5060208301516118dc602086018261173e565b5060408301516118ef604086018261177f565b506060830151611902606086018261173e565b506080830151611915608086018261173e565b5060a083015184820360a086015261192d82826117e5565b91505060c083015161194260c0860182611886565b5060e083015161195560e08601826118a1565b5061010083015161196a61010086018261173e565b508091505092915050565b6000602082019050818103600083015261198f81846118b0565b905092915050565b600081519050919050565b600082825260208201905092915050565b6000819050602082019050919050565b6000610120830160008301516119dc600086018261173e565b5060208301516119ef602086018261173e565b506040830151611a02604086018261177f565b506060830151611a15606086018261173e565b506080830151611a28608086018261173e565b5060a083015184820360a0860152611a4082826117e5565b91505060c0830151611a5560c0860182611886565b5060e0830151611a6860e08601826118a1565b50610100830151611a7d61010086018261173e565b508091505092915050565b6000611a9483836119c3565b905092915050565b6000602082019050919050565b6000611ab482611997565b611abe81856119a2565b935083602082028501611ad0856119b3565b8060005b85811015611b0c5784840389528151611aed8582611a88565b9450611af883611a9c565b925060208a01995050600181019050611ad4565b50829750879550505050505092915050565b60006020820190508181036000830152611b388184611aa9565b905092915050565b6000819050919050565b6000611b65611b60611b5b8461174d565b611b40565b61174d565b9050919050565b6000611b7782611b4a565b9050919050565b6000611b8982611b6c565b9050919050565b611b9981611b7e565b82525050565b6000602082019050611bb46000830184611b90565b92915050565b60008060408385031215611bd157611bd06116d1565b5b6000611bdf858286016116fc565b9250506020611bf0858286016116fc565b9150509250929050565b611c03816116db565b82525050565b6000602082019050611c1e6000830184611bfa565b92915050565b600081519050919050565b600082825260208201905092915050565b6000819050602082019050919050565b6000611c5c838361173e565b60208301905092915050565b6000602082019050919050565b6000611c8082611c24565b611c8a8185611c2f565b9350611c9583611c40565b8060005b83811015611cc6578151611cad8882611c50565b9750611cb883611c68565b925050600181019050611c99565b5085935050505092915050565b60006020820190508181036000830152611ced8184611c75565b905092915050565b611cfe8161176d565b82525050565b600082825260208201905092915050565b6000611d208261178e565b611d2a8185611d04565b9350611d3a8185602086016117aa565b611d43816117d4565b840191505092915050565b611d5781611874565b82525050565b611d6681611895565b82525050565b600061012082019050611d82600083018c611bfa565b611d8f602083018b611bfa565b611d9c604083018a611cf5565b611da96060830189611bfa565b611db66080830188611bfa565b81810360a0830152611dc88187611d15565b9050611dd760c0830186611d4e565b611de460e0830185611d5d565b611df2610100830184611bfa565b9a9950505050505050505050565b600080fd5b600080fd5b7f4e487b7100000000000000000000000000000000000000000000000000000000600052604160045260246000fd5b611e42826117d4565b810181811067ffffffffffffffff82111715611e6157611e60611e0a565b5b80604052505050565b6000611e746116c7565b9050611e808282611e39565b919050565b600067ffffffffffffffff821115611ea057611e9f611e0a565b5b611ea9826117d4565b9050602081019050919050565b82818337600083830152505050565b6000611ed8611ed384611e85565b611e6a565b905082815260208101848484011115611ef457611ef3611e05565b5b611eff848285611eb6565b509392505050565b600082601f830112611f1c57611f1b611e00565b5b8135611f2c848260208601611ec5565b91505092915050565b60028110611f4257600080fd5b50565b600081359050611f5481611f35565b92915050565b60008060008060808587031215611f7457611f736116d1565b5b6000611f82878288016116fc565b9450506020611f93878288016116fc565b935050604085013567ffffffffffffffff811115611fb457611fb36116d6565b5b611fc087828801611f07565b9250506060611fd187828801611f45565b91505092959194509250565b7f4c697374696e6720646f6573206e6f7420657869737400000000000000000000600082015250565b6000612013601683611d04565b915061201e82611fdd565b602082019050919050565b6000602082019050818103600083015261204281612006565b9050919050565b7f4e487b7100000000000000000000000000000000000000000000000000000000600052602260045260246000fd5b6000600282049050600182168061209057607f821691505b6020821081036120a3576120a2612049565b5b50919050565b7f4e487b7100000000000000000000000000000000000000000000000000000000600052603260045260246000fd5b7f4e487b7100000000000000000000000000000000000000000000000000000000600052601160045260246000fd5b6000612112826116db565b91507fffffffffffffffffffffffffffffffffffffffffffffffffffffffffffffffff8203612144576121436120d8565b5b600182019050919050565b7f4c697374696e67206973206e6f74206163746976650000000000000000000000600082015250565b6000612185601583611d04565b91506121908261214f565b602082019050919050565b600060208201905081810360008301526121b481612178565b9050919050565b7f4f6e6c7920746865206c697374696e6720736f63696574792063616e2063616e60008201527f63656c0000000000000000000000000000000000000000000000000000000000602082015250565b6000612217602383611d04565b9150612222826121bb565b604082019050919050565b600060208201905081810360008301526122468161220a565b9050919050565b60006020820190506122626000830184611cf5565b92915050565b61227181611895565b811461227c57600080fd5b50565b60008151905061228e81612268565b92915050565b6000602082840312156122aa576122a96116d1565b5b60006122b88482850161227f565b91505092915050565b7f4f6e6c79207265676973746572656420736f636965746965732063616e206c6960008201527f737420656e657267790000000000000000000000000000000000000000000000602082015250565b600061231d602983611d04565b9150612328826122c1565b604082019050919050565b6000602082019050818103600083015261234c81612310565b9050919050565b7f4d757374206c697374206174206c656173742031206b57680000000000000000600082015250565b6000612389601883611d04565b915061239482612353565b602082019050919050565b600060208201905081810360008301526123b88161237c565b9050919050565b7f5072696365206d7573742062652067726561746572207468616e203000000000600082015250565b60006123f5601c83611d04565b9150612400826123bf565b602082019050919050565b60006020820190508181036000830152612424816123e8565b9050919050565b60008151905061243a816116e5565b92915050565b600060208284031215612456576124556116d1565b5b60006124648482850161242b565b91505092915050565b60008190508160005260206000209050919050565b60006020601f8301049050919050565b600082821b905092915050565b6000600883026124cf7fffffffffffffffffffffffffffffffffffffffffffffffffffffffffffffffff82612492565b6124d98683612492565b95508019841693508086168417925050509392505050565b600061250c612507612502846116db565b611b40565b6116db565b9050919050565b6000819050919050565b612526836124f1565b61253a61253282612513565b84845461249f565b825550505050565b600090565b61254f612542565b61255a81848461251d565b505050565b5b8181101561257e57612573600082612547565b600181019050612560565b5050565b601f8211156125c3576125948161246d565b61259d84612482565b810160208510156125ac578190505b6125c06125b885612482565b83018261255f565b50505b505050565b600082821c905092915050565b60006125e6600019846008026125c8565b1980831691505092915050565b60006125ff83836125d5565b9150826002028217905092915050565b6126188261178e565b67ffffffffffffffff81111561263157612630611e0a565b5b61263b8254612078565b612646828285612582565b600060209050601f8311600181146126795760008415612667578287015190505b61267185826125f3565b8655506126d9565b601f1984166126878661246d565b60005b828110156126af5784890151825560018201915060208501945060208101905061268a565b868310156126cc57848901516126c8601f8916826125d5565b8355505b6001600288020188555050505b505050505050565b600060ff82169050919050565b6126f7816126e1565b82525050565b600060a0820190506127126000830188611bfa565b61271f6020830187611bfa565b81810360408301526127318186611d15565b905061274060608301856126ee565b61274d6080830184611bfa565b9695505050505050565b7f4e6f7420656e6f756768206b576820617661696c61626c650000000000000000600082015250565b600061278d601883611d04565b915061279882612757565b602082019050919050565b600060208201905081810360008301526127bc81612780565b9050919050565b60006127ce826116db565b91506127d9836116db565b92508282039050818111156127f1576127f06120d8565b5b9291505056fea26469706673582212209e55e3188b5f3550203744a750c4d5e4e499a1e235df58d1273fbbf20d3df0ab64736f6c634300081c0033",
  "linkReferences": {},
  "deployedLinkReferences": {}
}