{
  "_format": "hh-sol-artifact-1",
  "contractName": "EnergyTrade",
  "sourceName": "contracts/EnergyTrade.sol",
  "abi": [
    {
      "inputs": [
        {
          "internalType": "address",
          "name": "_societyRegistryAddress",
          "type": "address"
        },
        {
          "internalType": "address",
          "name": "_memberRegistryAddress",
          "type": "address"
        },
        {
          "internalType": "address",
          "name": "_energyListingAddress",
          "type": "address"
        }
      ],
      "stateMutability": "nonpayable",
      "type": "constructor"
    },
    {
      "anonymous": false,
      "inputs": [
        {
          "indexed": true,
          "internalType": "uint256",
          "name": "tradeId",
          "type": "uint256"
        },
        {
          "indexed": true,
          "internalType": "uint256",
          "name": "listingId",
          "type": "uint256"
        },
        {
          "indexed": true,
          "internalType": "address",
          "name": "buyer",
          "type": "address"
        },
        {
          "indexed": false,
          "internalType": "address",
          "name": "seller",
          "type": "address"
        },
        {
          "indexed": false,
          "internalType": "uint256",
          "name": "kWhPurchased",
          "type": "uint256"
        },
        {
          "indexed": false,
          "internalType": "uint256",
          "name": "totalPaid",
          "type": "uint256"
        },
        {
          "indexed": false,
          "internalType": "uint256",
          "name": "timestamp",
          "type": "uint256"
        }
      ],
      "name": "MemberPurchase",
      "type": "event"
    },
    {
      "anonymous": false,
      "inputs": [
        {
          "indexed": true,
          "internalType": "uint256",
          "name": "tradeId",
          "type": "uint256"
        },
        {
          "indexed": true,
          "internalType": "uint256",
          "name": "listingId",
          "type": "uint256"
        },
        {
          "indexed": true,
          "internalType": "address",
          "name": "buyer",
          "type": "address"
        },
        {
          "indexed": false,
          "internalType": "address",
          "name": "seller",
          "type": "address"
        },
        {
          "indexed": false,
          "internalType": "uint256",
          "name": "kWhPurchased",
          "type": "uint256"
        },
        {
          "indexed": false,
          "internalType": "uint256",
          "name": "totalPaid",
          "type": "uint256"
        },
        {
          "indexed": false,
          "internalType": "uint256",
          "name": "timestamp",
          "type": "uint256"
        }
      ],
      "name": "SocietyPurchase",
      "type": "event"
    },
    {
      "inputs": [],
      "name": "energyListing",
      "outputs": [
        {
          "internalType": "contract EnergyListing",
          "name": "",
          "type": "address"
        }
      ],
      "stateMutability": "view",
      "type": "function"
    },
    {
      "inputs": [
        {
          "internalType": "address",
          "name": "wallet",
          "type": "address"
        }
      ],
      "name": "getMyTrades",
      "outputs": [
        {
          "internalType": "uint256[]",
          "name": "",
          "type": "uint256[]"
        }
      ],
      "stateMutability": "view",
      "type": "function"
    },
    {
      "inputs": [
        {
          "internalType": "uint256",
          "name": "societyId",
          "type": "uint256"
        }
      ],
      "name": "getSocietyTrades",
      "outputs": [
        {
          "internalType": "uint256[]",
          "name": "",
          "type": "uint256[]"
        }
      ],
      "stateMutability": "view",
      "type": "function"
    },
    {
      "inputs": [
        {
          "internalType": "uint256",
          "name": "tradeId",
          "type": "uint256"
        }
      ],
      "name": "getTrade",
      "outputs": [
        {
          "components": [
            {
              "internalType": "uint256",
              "name": "id",
              "type": "uint256"
            },
            {
              "internalType": "uint256",
              "name": "listingId",
              "type": "uint256"
            },
            {
              "internalType": "address",
              "name": "buyerWallet",
              "type": "address"
            },
            {
              "internalType": "address",
              "name": "sellerWallet",
              "type": "address"
            },
            {
              "internalType": "uint256",
              "name": "sellerSocietyId",
              "type": "uint256"
            },
            {
              "internalType": "uint256",
              "name": "kWhPurchased",
              "type": "uint256"
            },
            {
              "internalType": "uint256",
              "name": "totalPaid",
              "type": "uint256"
            },
            {
              "internalType": "bool",
              "name": "isMemberTrade",
              "type": "bool"
            },
            {
              "internalType": "uint256",
              "name": "timestamp",
              "type": "uint256"
            }
          ],
          "internalType": "struct EnergyTrade.Trade",
          "name": "",
          "type": "tuple"
        }
      ],
      "stateMutability": "view",
      "type": "function"
    },
    {
      "inputs": [
        {
          "internalType": "uint256",
          "name": "listingId",
          "type": "uint256"
        },
        {
          "internalType": "uint256",
          "name": "kWh",
          "type": "uint256"
        }
      ],
      "name": "memberBuyEnergy",
      "outputs": [],
      "stateMutability": "payable",
      "type": "function"
    },
    {
      "inputs": [],
      "name": "memberRegistry",
      "outputs": [
        {
          "internalType": "contract MemberRegistry",
          "name": "",
          "type": "address"
        }
      ],
      "stateMutability": "view",
      "type": "function"
    },
    {
      "inputs": [
        {
          "internalType": "uint256",
          "name": "listingId",
          "type": "uint256"
        },
        {
          "internalType": "uint256",
          "name": "kWh",
          "type": "uint256"
        }
      ],
      "name": "societyBuyEnergy",
      "outputs": [],
      "stateMutability": "payable",
      "type": "function"
    },
    {
      "inputs": [],
      "name": "societyRegistry",
      "outputs": [
        {
          "internalType": "contract SocietyRegistry",
          "name": "",
          "type": "address"
        }
      ],
      "stateMutability": "view",
      "type": "function"
    },
    {
      "inputs": [
        {
          "internalType": "uint256",
          "name": "",
          "type": "uint256"
        }
      ],
      "name": "tradeById",
      "outputs": [
        {
          "internalType": "uint256",
          "name": "id",
          "type": "uint256"
        },
        {
          "internalType": "uint256",
          "name": "listingId",
          "type": "uint256"
        },
        {
          "internalType": "address",
          "name": "buyerWallet",
          "type": "address"
        },
        {
          "internalType": "address",
          "name": "sellerWallet",
          "type": "address"
        },
        {
          "internalType": "uint256",
          "name": "sellerSocietyId",
          "type": "uint256"
        },
        {
          "internalType": "uint256",
          "name": "kWhPurchased",
          "type": "uint256"
        },
        {
          "internalType": "uint256",
          "name": "totalPaid",
          "type": "uint256"
        },
        {
          "internalType": "bool",
          "name": "isMemberTrade",
          "type": "bool"
        },
        {
          "internalType": "uint256",
          "name": "timestamp",
          "type": "uint256"
        }
      ],
      "stateMutability": "view",
      "type": "function"
    },
    {
      "inputs": [],
      "name": "tradeCount",
      "outputs": [
        {
          "internalType": "uint256",
          "name": "",
          "type": "uint256"
        }
      ],
      "stateMutability": "view",
      "type": "function"
    },
    {
      "inputs": [
        {
          "internalType": "uint256",
          "name": "",
          "type": "uint256"
        },
        {
          "internalType": "uint256",
          "name": "",
          "type": "uint256"
        }
      ],
      "name": "tradesBySociety",
      "outputs": [
        {
          "internalType": "uint256",
          "name": "",
          "type": "uint256"
        }
      ],
      "stateMutability": "view",
      "type": "function"
    },
    {
      "inputs": [
        {
          "internalType": "address",
          "name": "",
          "type": "address"
        },
        {
          "internalType": "uint256",
          "name": "",
          "type": "uint256"
        }
      ],
      "name": "tradesByWallet",
      "outputs": [
        {
          "internalType": "uint256",
          "name": "",
          "type": "uint256"
        }
      ],
      "stateMutability": "view",
      "type": "function"
    }
  ],
  "bytecode": "0x6080604052600060035534801561001557600080fd5b5060405161283938038061283983398181016040528101906100379190610164565b826000806101000a81548173ffffffffffffffffffffffffffffffffffffffff021916908373ffffffffffffffffffffffffffffffffffffffff16021790555081600160006101000a81548173ffffffffffffffffffffffffffffffffffffffff021916908373ffffffffffffffffffffffffffffffffffffffff16021790555080600260006101000a81548173ffffffffffffffffffffffffffffffffffffffff021916908373ffffffffffffffffffffffffffffffffffffffff1602179055505050506101b7565b600080fd5b600073ffffffffffffffffffffffffffffffffffffffff82169050919050565b600061013182610106565b9050919050565b61014181610126565b811461014c57600080fd5b50565b60008151905061015e81610138565b92915050565b60008060006060848603121561017d5761017c610101565b5b600061018b8682870161014f565b935050602061019c8682870161014f565b92505060406101ad8682870161014f565b9150509250925092565b612673806101c66000396000f3fe6080604052600436106100a75760003560e01c8063a74d477211610064578063a74d4772146101ef578063b72497221461021a578063bd55022a14610236578063c1d5ae5014610261578063cc6786231461028c578063f4256bf0146102c9576100a7565b806311a05f5f146100ac5780632244832e146100e95780632db25e051461012e578063463763131461016b5780636932255c146101965780636a6a706e146101d3575b600080fd5b3480156100b857600080fd5b506100d360048036038101906100ce9190611726565b610306565b6040516100e0919061181b565b60405180910390f35b3480156100f557600080fd5b50610110600480360381019061010b9190611869565b61039d565b604051610125999897969594939291906118cf565b60405180910390f35b34801561013a57600080fd5b5061015560048036038101906101509190611869565b610438565b6040516101629190611a31565b60405180910390f35b34801561017757600080fd5b506101806105ba565b60405161018d9190611aac565b60405180910390f35b3480156101a257600080fd5b506101bd60048036038101906101b89190611ac7565b6105de565b6040516101ca9190611b07565b60405180910390f35b6101ed60048036038101906101e89190611ac7565b61060f565b005b3480156101fb57600080fd5b50610204610d91565b6040516102119190611b43565b60405180910390f35b610234600480360381019061022f9190611ac7565b610db7565b005b34801561024257600080fd5b5061024b611572565b6040516102589190611b07565b60405180910390f35b34801561026d57600080fd5b50610276611578565b6040516102839190611b7f565b60405180910390f35b34801561029857600080fd5b506102b360048036038101906102ae9190611869565b61159e565b6040516102c0919061181b565b60405180910390f35b3480156102d557600080fd5b506102f060048036038101906102eb9190611b9a565b611609565b6040516102fd9190611b07565b60405180910390f35b6060600560008373ffffffffffffffffffffffffffffffffffffffff1673ffffffffffffffffffffffffffffffffffffffff16815260200190815260200160002080548060200260200160405190810160405280929190818152602001828054801561039157602002820191906000526020600020905b81548152602001906001019080831161037d575b50505050509050919050565b60046020528060005260406000206000915090508060000154908060010154908060020160009054906101000a900473ffffffffffffffffffffffffffffffffffffffff16908060030160009054906101000a900473ffffffffffffffffffffffffffffffffffffffff16908060040154908060050154908060060154908060070160009054906101000a900460ff16908060080154905089565b61044061163a565b60008211801561045257506003548211155b610491576040517f08c379a000000000000000000000000000000000000000000000000000000000815260040161048890611c37565b60405180910390fd5b600460008381526020019081526020016000206040518061012001604052908160008201548152602001600182015481526020016002820160009054906101000a900473ffffffffffffffffffffffffffffffffffffffff1673ffffffffffffffffffffffffffffffffffffffff1673ffffffffffffffffffffffffffffffffffffffff1681526020016003820160009054906101000a900473ffffffffffffffffffffffffffffffffffffffff1673ffffffffffffffffffffffffffffffffffffffff1673ffffffffffffffffffffffffffffffffffffffff1681526020016004820154815260200160058201548152602001600682015481526020016007820160009054906101000a900460ff161515151581526020016008820154815250509050919050565b60008054906101000a900473ffffffffffffffffffffffffffffffffffffffff1681565b600660205281600052604060002081815481106105fa57600080fd5b90600052602060002001600091509150505481565b600160009054906101000a900473ffffffffffffffffffffffffffffffffffffffff1673ffffffffffffffffffffffffffffffffffffffff1663a230c524336040518263ffffffff1660e01b815260040161066a9190611c57565b602060405180830381865afa158015610687573d6000803e3d6000fd5b505050506040513d601f19601f820116820180604052508101906106ab9190611c9e565b6106ea576040517f08c379a00000000000000000000000000000000000000000000000000000000081526004016106e190611d17565b60405180910390fd5b6000600260009054906101000a900473ffffffffffffffffffffffffffffffffffffffff1673ffffffffffffffffffffffffffffffffffffffff1663107a274a846040518263ffffffff1660e01b81526004016107479190611b07565b600060405180830381865afa158015610764573d6000803e3d6000fd5b505050506040513d6000823e3d601f19601f8201168201806040525081019061078d9190611fed565b90508060e001516107d3576040517f08c379a00000000000000000000000000000000000000000000000000000000081526004016107ca90612082565b60405180910390fd5b60008160c0015160018111156107ec576107eb6120a2565b5b60ff161461082f576040517f08c379a000000000000000000000000000000000000000000000000000000000815260040161082690612143565b60405180910390fd5b6000600160009054906101000a900473ffffffffffffffffffffffffffffffffffffffff1673ffffffffffffffffffffffffffffffffffffffff166309e85f37336040518263ffffffff1660e01b815260040161088c9190611c57565b602060405180830381865afa1580156108a9573d6000803e3d6000fd5b505050506040513d601f19601f820116820180604052508101906108cd9190612163565b905081602001518114610915576040517f08c379a000000000000000000000000000000000000000000000000000000000815260040161090c90612202565b60405180910390fd5b828260600151101561095c576040517f08c379a00000000000000000000000000000000000000000000000000000000081526004016109539061226e565b60405180910390fd5b600082608001518461096e91906122bd565b90508034146109b2576040517f08c379a00000000000000000000000000000000000000000000000000000000081526004016109a99061234b565b60405180910390fd5b600260009054906101000a900473ffffffffffffffffffffffffffffffffffffffff1673ffffffffffffffffffffffffffffffffffffffff1663ea4baba686866040518363ffffffff1660e01b8152600401610a0f92919061236b565b600060405180830381600087803b158015610a2957600080fd5b505af1158015610a3d573d6000803e3d6000fd5b505050506000836040015173ffffffffffffffffffffffffffffffffffffffff1634604051610a6b906123c5565b60006040518083038185875af1925050503d8060008114610aa8576040519150601f19603f3d011682016040523d82523d6000602084013e610aad565b606091505b5050905080610af1576040517f08c379a0000000000000000000000000000000000000000000000000000000008152600401610ae890612426565b60405180910390fd5b60036000815480929190610b0490612446565b919050555060405180610120016040528060035481526020018781526020013373ffffffffffffffffffffffffffffffffffffffff168152602001856040015173ffffffffffffffffffffffffffffffffffffffff1681526020018560200151815260200186815260200134815260200160011515815260200142815250600460006003548152602001908152602001600020600082015181600001556020820151816001015560408201518160020160006101000a81548173ffffffffffffffffffffffffffffffffffffffff021916908373ffffffffffffffffffffffffffffffffffffffff16021790555060608201518160030160006101000a81548173ffffffffffffffffffffffffffffffffffffffff021916908373ffffffffffffffffffffffffffffffffffffffff1602179055506080820151816004015560a0820151816005015560c0820151816006015560e08201518160070160006101000a81548160ff0219169083151502179055506101008201518160080155905050600560003373ffffffffffffffffffffffffffffffffffffffff1673ffffffffffffffffffffffffffffffffffffffff1681526020019081526020016000206003549080600181540180825580915050600190039060005260206000200160009091909190915055600660008560200151815260200190815260200160002060035490806001815401808255809150506001900390600052602060002001600090919091909150553373ffffffffffffffffffffffffffffffffffffffff16866003547f6c7ed953baaf2b02a2b959cd45c076d84d321b250c4dee102406b2db96cefa848760400151893442604051610d81949392919061248e565b60405180910390a4505050505050565b600160009054906101000a900473ffffffffffffffffffffffffffffffffffffffff1681565b60008054906101000a900473ffffffffffffffffffffffffffffffffffffffff1673ffffffffffffffffffffffffffffffffffffffff1663af65d74d336040518263ffffffff1660e01b8152600401610e109190611c57565b602060405180830381865afa158015610e2d573d6000803e3d6000fd5b505050506040513d601f19601f82011682018060405250810190610e519190611c9e565b610e90576040517f08c379a0000000000000000000000000000000000000000000000000000000008152600401610e879061251f565b60405180910390fd5b6000600260009054906101000a900473ffffffffffffffffffffffffffffffffffffffff1673ffffffffffffffffffffffffffffffffffffffff1663107a274a846040518263ffffffff1660e01b8152600401610eed9190611b07565b600060405180830381865afa158015610f0a573d6000803e3d6000fd5b505050506040513d6000823e3d601f19601f82011682018060405250810190610f339190611fed565b90508060e00151610f79576040517f08c379a0000000000000000000000000000000000000000000000000000000008152600401610f7090612082565b60405180910390fd5b60018160c001516001811115610f9257610f916120a2565b5b60ff1614610fd5576040517f08c379a0000000000000000000000000000000000000000000000000000000008152600401610fcc906125b1565b60405180910390fd5b60008060009054906101000a900473ffffffffffffffffffffffffffffffffffffffff1673ffffffffffffffffffffffffffffffffffffffff1663de9c86e1336040518263ffffffff1660e01b81526004016110319190611c57565b602060405180830381865afa15801561104e573d6000803e3d6000fd5b505050506040513d601f19601f820116820180604052508101906110729190612163565b9050816020015181036110ba576040517f08c379a00000000000000000000000000000000000000000000000000000000081526004016110b19061261d565b60405180910390fd5b8282606001511015611101576040517f08c379a00000000000000000000000000000000000000000000000000000000081526004016110f89061226e565b60405180910390fd5b600082608001518461111391906122bd565b9050803414611157576040517f08c379a000000000000000000000000000000000000000000000000000000000815260040161114e9061234b565b60405180910390fd5b600260009054906101000a900473ffffffffffffffffffffffffffffffffffffffff1673ffffffffffffffffffffffffffffffffffffffff1663ea4baba686866040518363ffffffff1660e01b81526004016111b492919061236b565b600060405180830381600087803b1580156111ce57600080fd5b505af11580156111e2573d6000803e3d6000fd5b505050506000836040015173ffffffffffffffffffffffffffffffffffffffff1634604051611210906123c5565b60006040518083038185875af1925050503d806000811461124d576040519150601f19603f3d011682016040523d82523d6000602084013e611252565b606091505b5050905080611296576040517f08c379a000000000000000000000000000000000000000000000000000000000815260040161128d90612426565b60405180910390fd5b600360008154809291906112a990612446565b919050555060405180610120016040528060035481526020018781526020013373ffffffffffffffffffffffffffffffffffffffff168152602001856040015173ffffffffffffffffffffffffffffffffffffffff1681526020018560200151815260200186815260200134815260200160001515815260200142815250600460006003548152602001908152602001600020600082015181600001556020820151816001015560408201518160020160006101000a81548173ffffffffffffffffffffffffffffffffffffffff021916908373ffffffffffffffffffffffffffffffffffffffff16021790555060608201518160030160006101000a81548173ffffffffffffffffffffffffffffffffffffffff021916908373ffffffffffffffffffffffffffffffffffffffff1602179055506080820151816004015560a0820151816005015560c0820151816006015560e08201518160070160006101000a81548160ff0219169083151502179055506101008201518160080155905050600560003373ffffffffffffffffffffffffffffffffffffffff1673ffffffffffffffffffffffffffffffffffffffff1681526020019081526020016000206003549080600181540180825580915050600190039060005260206000200160009091909190915055600660008560200151815260200190815260200160002060035490806001815401808255809150506001900390600052602060002001600090919091909150556006600084815260200190815260200160002060035490806001815401808255809150506001900390600052602060002001600090919091909150553373ffffffffffffffffffffffffffffffffffffffff16866003547fffb6329ea8efe0cd823fc2f4e7edc9935227917a51e3e2c7c8644178444ae9748760400151893442604051611562949392919061248e565b60405180910390a4505050505050565b60035481565b600260009054906101000a900473ffffffffffffffffffffffffffffffffffffffff1681565b6060600660008381526020019081526020016000208054806020026020016040519081016040528092919081815260200182805480156115fd57602002820191906000526020600020905b8154815260200190600101908083116115e9575b50505050509050919050565b6005602052816000526040600020818154811061162557600080fd5b90600052602060002001600091509150505481565b6040518061012001604052806000815260200160008152602001600073ffffffffffffffffffffffffffffffffffffffff168152602001600073ffffffffffffffffffffffffffffffffffffffff168152602001600081526020016000815260200160008152602001600015158152602001600081525090565b6000604051905090565b600080fd5b600080fd5b600073ffffffffffffffffffffffffffffffffffffffff82169050919050565b60006116f3826116c8565b9050919050565b611703816116e8565b811461170e57600080fd5b50565b600081359050611720816116fa565b92915050565b60006020828403121561173c5761173b6116be565b5b600061174a84828501611711565b91505092915050565b600081519050919050565b600082825260208201905092915050565b6000819050602082019050919050565b6000819050919050565b6117928161177f565b82525050565b60006117a48383611789565b60208301905092915050565b6000602082019050919050565b60006117c882611753565b6117d2818561175e565b93506117dd8361176f565b8060005b8381101561180e5781516117f58882611798565b9750611800836117b0565b9250506001810190506117e1565b5085935050505092915050565b6000602082019050818103600083015261183581846117bd565b905092915050565b6118468161177f565b811461185157600080fd5b50565b6000813590506118638161183d565b92915050565b60006020828403121561187f5761187e6116be565b5b600061188d84828501611854565b91505092915050565b61189f8161177f565b82525050565b6118ae816116e8565b82525050565b60008115159050919050565b6118c9816118b4565b82525050565b6000610120820190506118e5600083018c611896565b6118f2602083018b611896565b6118ff604083018a6118a5565b61190c60608301896118a5565b6119196080830188611896565b61192660a0830187611896565b61193360c0830186611896565b61194060e08301856118c0565b61194e610100830184611896565b9a9950505050505050505050565b611965816116e8565b82525050565b611974816118b4565b82525050565b610120820160008201516119916000850182611789565b5060208201516119a46020850182611789565b5060408201516119b7604085018261195c565b5060608201516119ca606085018261195c565b5060808201516119dd6080850182611789565b5060a08201516119f060a0850182611789565b5060c0820151611a0360c0850182611789565b5060e0820151611a1660e085018261196b565b50610100820151611a2b610100850182611789565b50505050565b600061012082019050611a47600083018461197a565b92915050565b6000819050919050565b6000611a72611a6d611a68846116c8565b611a4d565b6116c8565b9050919050565b6000611a8482611a57565b9050919050565b6000611a9682611a79565b9050919050565b611aa681611a8b565b82525050565b6000602082019050611ac16000830184611a9d565b92915050565b60008060408385031215611ade57611add6116be565b5b6000611aec85828601611854565b9250506020611afd85828601611854565b9150509250929050565b6000602082019050611b1c6000830184611896565b92915050565b6000611b2d82611a79565b9050919050565b611b3d81611b22565b82525050565b6000602082019050611b586000830184611b34565b92915050565b6000611b6982611a79565b9050919050565b611b7981611b5e565b82525050565b6000602082019050611b946000830184611b70565b92915050565b60008060408385031215611bb157611bb06116be565b5b6000611bbf85828601611711565b9250506020611bd085828601611854565b9150509250929050565b600082825260208201905092915050565b7f547261646520646f6573206e6f74206578697374000000000000000000000000600082015250565b6000611c21601483611bda565b9150611c2c82611beb565b602082019050919050565b60006020820190508181036000830152611c5081611c14565b9050919050565b6000602082019050611c6c60008301846118a5565b92915050565b611c7b816118b4565b8114611c8657600080fd5b50565b600081519050611c9881611c72565b92915050565b600060208284031215611cb457611cb36116be565b5b6000611cc284828501611c89565b91505092915050565b7f4e6f7420612072656769737465726564206d656d626572000000000000000000600082015250565b6000611d01601783611bda565b9150611d0c82611ccb565b602082019050919050565b60006020820190508181036000830152611d3081611cf4565b9050919050565b600080fd5b6000601f19601f8301169050919050565b7f4e487b7100000000000000000000000000000000000000000000000000000000600052604160045260246000fd5b611d8582611d3c565b810181811067ffffffffffffffff82111715611da457611da3611d4d565b5b80604052505050565b6000611db76116b4565b9050611dc38282611d7c565b919050565b600080fd5b600081519050611ddc8161183d565b92915050565b600081519050611df1816116fa565b92915050565b600080fd5b600080fd5b600067ffffffffffffffff821115611e1c57611e1b611d4d565b5b611e2582611d3c565b9050602081019050919050565b60005b83811015611e50578082015181840152602081019050611e35565b60008484015250505050565b6000611e6f611e6a84611e01565b611dad565b905082815260208101848484011115611e8b57611e8a611dfc565b5b611e96848285611e32565b509392505050565b600082601f830112611eb357611eb2611df7565b5b8151611ec3848260208601611e5c565b91505092915050565b60028110611ed957600080fd5b50565b600081519050611eeb81611ecc565b92915050565b60006101208284031215611f0857611f07611d37565b5b611f13610120611dad565b90506000611f2384828501611dcd565b6000830152506020611f3784828501611dcd565b6020830152506040611f4b84828501611de2565b6040830152506060611f5f84828501611dcd565b6060830152506080611f7384828501611dcd565b60808301525060a082015167ffffffffffffffff811115611f9757611f96611dc8565b5b611fa384828501611e9e565b60a08301525060c0611fb784828501611edc565b60c08301525060e0611fcb84828501611c89565b60e083015250610100611fe084828501611dcd565b6101008301525092915050565b600060208284031215612003576120026116be565b5b600082015167ffffffffffffffff811115612021576120206116c3565b5b61202d84828501611ef1565b91505092915050565b7f4c697374696e67206973206e6f74206163746976650000000000000000000000600082015250565b600061206c601583611bda565b915061207782612036565b602082019050919050565b6000602082019050818103600083015261209b8161205f565b9050919050565b7f4e487b7100000000000000000000000000000000000000000000000000000000600052602160045260246000fd5b7f54686973206c697374696e67206973206e6f7420617661696c61626c6520666f60008201527f72206d656d626572730000000000000000000000000000000000000000000000602082015250565b600061212d602983611bda565b9150612138826120d1565b604082019050919050565b6000602082019050818103600083015261215c81612120565b9050919050565b600060208284031215612179576121786116be565b5b600061218784828501611dcd565b91505092915050565b7f596f752063616e206f6e6c79206275792066726f6d20796f7572206f776e207360008201527f6f63696574790000000000000000000000000000000000000000000000000000602082015250565b60006121ec602683611bda565b91506121f782612190565b604082019050919050565b6000602082019050818103600083015261221b816121df565b9050919050565b7f4e6f7420656e6f756768206b576820617661696c61626c650000000000000000600082015250565b6000612258601883611bda565b915061226382612222565b602082019050919050565b600060208201905081810360008301526122878161224b565b9050919050565b7f4e487b7100000000000000000000000000000000000000000000000000000000600052601160045260246000fd5b60006122c88261177f565b91506122d38361177f565b92508282026122e18161177f565b915082820484148315176122f8576122f761228e565b5b5092915050565b7f496e636f72726563742045544820616d6f756e742073656e7400000000000000600082015250565b6000612335601983611bda565b9150612340826122ff565b602082019050919050565b6000602082019050818103600083015261236481612328565b9050919050565b60006040820190506123806000830185611896565b61238d6020830184611896565b9392505050565b600081905092915050565b50565b60006123af600083612394565b91506123ba8261239f565b600082019050919050565b60006123d0826123a2565b9150819050919050565b7f455448207472616e7366657220746f20736f6369657479206661696c65640000600082015250565b6000612410601e83611bda565b915061241b826123da565b602082019050919050565b6000602082019050818103600083015261243f81612403565b9050919050565b60006124518261177f565b91507fffffffffffffffffffffffffffffffffffffffffffffffffffffffffffffffff82036124835761248261228e565b5b600182019050919050565b60006080820190506124a360008301876118a5565b6124b06020830186611896565b6124bd6040830185611896565b6124ca6060830184611896565b95945050505050565b7f4e6f742061207265676973746572656420736f63696574790000000000000000600082015250565b6000612509601883611bda565b9150612514826124d3565b602082019050919050565b60006020820190508181036000830152612538816124fc565b9050919050565b7f54686973206c697374696e67206973206e6f7420617661696c61626c6520666f60008201527f7220736f63696574696573000000000000000000000000000000000000000000602082015250565b600061259b602b83611bda565b91506125a68261253f565b604082019050919050565b600060208201905081810360008301526125ca8161258e565b9050919050565b7f43616e6e6f74206275792066726f6d20796f7572206f776e206c697374696e67600082015250565b6000612607602083611bda565b9150612612826125d1565b602082019050919050565b60006020820190508181036000830152612636816125fa565b905091905056fea2646970667358221220591cbc1d4a15b8d473bdad095497fec06cdf8e6a8e468319cb05564a85695fdb64736f6c634300081c0033",
  "linkReferences": {},
  "deployedLinkReferences": {}
}