{
  "_format": "hh-sol-artifact-1",
  "contractName": "EnergyTrade",
  "sourceName": "contracts/EnergyTrade.sol",
  "abi": [
    {
      "inputs": [
        {
          "internalType": "address",
          "name": "_societyRegistryAddress",
          "type": "address"
        },
        {
          "internalType": "address",
          "name": "_memberRegistryAddress",
          "type": "address"
        },
        {
          "internalType": "address",
          "name": "_energyListingAddress",
          "type": "address"
        }
      ],
      "stateMutability": "nonpayable",
      "type": "constructor"
    },
    {
      "anonymous": false,
      "inputs": [
        {
          "indexed": true,
          "internalType": "uint256",
          "name": "tradeId",
          "type": "uint256"
        },
        {
          "indexed": true,
          "internalType": "uint256",
          "name": "listingId",
          "type": "uint256"
        },
        {
          "indexed": true,
          "internalType": "address",
          "name": "buyer",
          "type": "address"
        },
        {
          "indexed": false,
          "internalType": "address",
          "name": "seller",
          "type": "address"
        },
        {
          "indexed": false,
          "internalType": "uint256",
          "name": "kWhPurchased",
          "type": "uint256"
        },
        {
          "indexed": false,
          "internalType": "uint256",
          "name": "totalPaid",
          "type": "uint256"
        },
        {
          "indexed": false,
          "internalType": "uint256",
          "name": "timestamp",
          "type": "uint256"
        }
      ],
      "name": "MemberPurchase",
      "type": "event"
    },
    {
      "anonymous": false,
      "inputs": [
        {
          "indexed": true,
          "internalType": "uint256",
          "name": "tradeId",
          "type": "uint256"
        },
        {
          "indexed": true,
          "internalType": "uint256",
          "name": "listingId",
          "type": "uint256"
        },
        {
          "indexed": true,
          "internalType": "address",
          "name": "buyer",
          "type": "address"
        },
        {
          "indexed": false,
          "internalType": "address",
          "name": "seller",
          "type": "address"
        },
        {
          "indexed": false,
          "internalType": "uint256",
          "name": "kWhPurchased",
          "type": "uint256"
        },
        {
          "indexed": false,
          "internalType": "uint256",
          "name": "totalPaid",
          "type": "uint256"
        },
        {
          "indexed": false,
          "internalType": "uint256",
          "name": "timestamp",
          "type": "uint256"
        }
      ],
      "name": "SocietyPurchase",
      "type": "event"
    },
    {
      "inputs": [],
      "name": "energyListing",
      "outputs": [
        {
          "internalType": "contract EnergyListing",
          "name": "",
          "type": "address"
        }
      ],
      "stateMutability": "view",
      "type": "function"
    },
    {
      "inputs": [
        {
          "internalType": "address",
          "name": "wallet",
          "type": "address"
        }
      ],
      "name": "getMyTrades",
      "outputs": [
        {
          "internalType": "uint256[]",
          "name": "",
          "type": "uint256[]"
        }
      ],
      "stateMutability": "view",
      "type": "function"
    },
    {
      "inputs": [
        {
          "internalType": "uint256",
          "name": "societyId",
          "type": "uint256"
        }
      ],
      "name": "getSocietyTrades",
      "outputs": [
        {
          "internalType": "uint256[]",
          "name": "",
          "type": "uint256[]"
        }
      ],
      "stateMutability": "view",
      "type": "function"
    },
    {
      "inputs": [
        {
          "internalType": "uint256",
          "name": "tradeId",
          "type": "uint256"
        }
      ],
      "name": "getTrade",
      "outputs": [
        {
          "components": [
            {
              "internalType": "uint256",
              "name": "id",
              "type": "uint256"
            },
            {
              "internalType": "uint256",
              "name": "listingId",
              "type": "uint256"
            },
            {
              "internalType": "address",
              "name": "buyerWallet",
              "type": "address"
            },
            {
              "internalType": "address",
              "name": "sellerWallet",
              "type": "address"
            },
            {
              "internalType": "uint256",
              "name": "sellerSocietyId",
              "type": "uint256"
            },
            {
              "internalType": "uint256",
              "name": "kWhPurchased",
              "type": "uint256"
            },
            {
              "internalType": "uint256",
              "name": "totalPaid",
              "type": "uint256"
            },
            {
              "internalType": "bool",
              "name": "isMemberTrade",
              "type": "bool"
            },
            {
              "internalType": "uint256",
              "name": "timestamp",
              "type": "uint256"
            },
            {
              "internalType": "string",
              "name": "ipfsHash",
              "type": "string"
            }
          ],
          "internalType": "struct EnergyTrade.Trade",
          "name": "",
          "type": "tuple"
        }
      ],
      "stateMutability": "view",
      "type": "function"
    },
    {
      "inputs": [
        {
          "internalType": "uint256",
          "name": "listingId",
          "type": "uint256"
        },
        {
          "internalType": "uint256",
          "name": "kWh",
          "type": "uint256"
        },
        {
          "internalType": "string",
          "name": "ipfsHash",
          "type": "string"
        }
      ],
      "name": "memberBuyEnergy",
      "outputs": [],
      "stateMutability": "payable",
      "type": "function"
    },
    {
      "inputs": [],
      "name": "memberRegistry",
      "outputs": [
        {
          "internalType": "contract MemberRegistry",
          "name": "",
          "type": "address"
        }
      ],
      "stateMutability": "view",
      "type": "function"
    },
    {
      "inputs": [
        {
          "internalType": "uint256",
          "name": "listingId",
          "type": "uint256"
        },
        {
          "internalType": "uint256",
          "name": "kWh",
          "type": "uint256"
        },
        {
          "internalType": "string",
          "name": "ipfsHash",
          "type": "string"
        }
      ],
      "name": "societyBuyEnergy",
      "outputs": [],
      "stateMutability": "payable",
      "type": "function"
    },
    {
      "inputs": [],
      "name": "societyRegistry",
      "outputs": [
        {
          "internalType": "contract SocietyRegistry",
          "name": "",
          "type": "address"
        }
      ],
      "stateMutability": "view",
      "type": "function"
    },
    {
      "inputs": [
        {
          "internalType": "uint256",
          "name": "",
          "type": "uint256"
        }
      ],
      "name": "tradeById",
      "outputs": [
        {
          "internalType": "uint256",
          "name": "id",
          "type": "uint256"
        },
        {
          "internalType": "uint256",
          "name": "listingId",
          "type": "uint256"
        },
        {
          "internalType": "address",
          "name": "buyerWallet",
          "type": "address"
        },
        {
          "internalType": "address",
          "name": "sellerWallet",
          "type": "address"
        },
        {
          "internalType": "uint256",
          "name": "sellerSocietyId",
          "type": "uint256"
        },
        {
          "internalType": "uint256",
          "name": "kWhPurchased",
          "type": "uint256"
        },
        {
          "internalType": "uint256",
          "name": "totalPaid",
          "type": "uint256"
        },
        {
          "internalType": "bool",
          "name": "isMemberTrade",
          "type": "bool"
        },
        {
          "internalType": "uint256",
          "name": "timestamp",
          "type": "uint256"
        },
        {
          "internalType": "string",
          "name": "ipfsHash",
          "type": "string"
        }
      ],
      "stateMutability": "view",
      "type": "function"
    },
    {
      "inputs": [],
      "name": "tradeCount",
      "outputs": [
        {
          "internalType": "uint256",
          "name": "",
          "type": "uint256"
        }
      ],
      "stateMutability": "view",
      "type": "function"
    },
    {
      "inputs": [
        {
          "internalType": "uint256",
          "name": "",
          "type": "uint256"
        },
        {
          "internalType": "uint256",
          "name": "",
          "type": "uint256"
        }
      ],
      "name": "tradesBySociety",
      "outputs": [
        {
          "internalType": "uint256",
          "name": "",
          "type": "uint256"
        }
      ],
      "stateMutability": "view",
      "type": "function"
    },
    {
      "inputs": [
        {
          "internalType": "address",
          "name": "",
          "type": "address"
        },
        {
          "internalType": "uint256",
          "name": "",
          "type": "uint256"
        }
      ],
      "name": "tradesByWallet",
      "outputs": [
        {
          "internalType": "uint256",
          "name": "",
          "type": "uint256"
        }
      ],
      "stateMutability": "view",
      "type": "function"
    }
  ],
  "bytecode": "0x6080604052600060035534801561001557600080fd5b50604051612e2c380380612e2c83398181016040528101906100379190610164565b826000806101000a81548173ffffffffffffffffffffffffffffffffffffffff021916908373ffffffffffffffffffffffffffffffffffffffff16021790555081600160006101000a81548173ffffffffffffffffffffffffffffffffffffffff021916908373ffffffffffffffffffffffffffffffffffffffff16021790555080600260006101000a81548173ffffffffffffffffffffffffffffffffffffffff021916908373ffffffffffffffffffffffffffffffffffffffff1602179055505050506101b7565b600080fd5b600073ffffffffffffffffffffffffffffffffffffffff82169050919050565b600061013182610106565b9050919050565b61014181610126565b811461014c57600080fd5b50565b60008151905061015e81610138565b92915050565b60008060006060848603121561017d5761017c610101565b5b600061018b8682870161014f565b935050602061019c8682870161014f565b92505060406101ad8682870161014f565b9150509250925092565b612c66806101c66000396000f3fe6080604052600436106100a75760003560e01c80636932255c116100645780636932255c146101cf578063a74d47721461020c578063bd55022a14610237578063c1d5ae5014610262578063cc6786231461028d578063f4256bf0146102ca576100a7565b806311a05f5f146100ac5780632244832e146100e95780632db25e051461012f5780633cf1d34f1461016c57806346376313146101885780635ec6037d146101b3575b600080fd5b3480156100b857600080fd5b506100d360048036038101906100ce919061188a565b610307565b6040516100e0919061197f565b60405180910390f35b3480156100f557600080fd5b50610110600480360381019061010b91906119cd565b61039e565b6040516101269a99989796959493929190611ac3565b60405180910390f35b34801561013b57600080fd5b50610156600480360381019061015191906119cd565b6104c7565b6040516101639190611ca8565b60405180910390f35b61018660048036038101906101819190611dff565b6106db565b005b34801561019457600080fd5b5061019d610eb4565b6040516101aa9190611ecd565b60405180910390f35b6101cd60048036038101906101c89190611dff565b610ed8565b005b3480156101db57600080fd5b506101f660048036038101906101f19190611ee8565b611678565b6040516102039190611f28565b60405180910390f35b34801561021857600080fd5b506102216116a9565b60405161022e9190611f64565b60405180910390f35b34801561024357600080fd5b5061024c6116cf565b6040516102599190611f28565b60405180910390f35b34801561026e57600080fd5b506102776116d5565b6040516102849190611fa0565b60405180910390f35b34801561029957600080fd5b506102b460048036038101906102af91906119cd565b6116fb565b6040516102c1919061197f565b60405180910390f35b3480156102d657600080fd5b506102f160048036038101906102ec9190611fbb565b611766565b6040516102fe9190611f28565b60405180910390f35b6060600560008373ffffffffffffffffffffffffffffffffffffffff1673ffffffffffffffffffffffffffffffffffffffff16815260200190815260200160002080548060200260200160405190810160405280929190818152602001828054801561039257602002820191906000526020600020905b81548152602001906001019080831161037e575b50505050509050919050565b60046020528060005260406000206000915090508060000154908060010154908060020160009054906101000a900473ffffffffffffffffffffffffffffffffffffffff16908060030160009054906101000a900473ffffffffffffffffffffffffffffffffffffffff16908060040154908060050154908060060154908060070160009054906101000a900460ff16908060080154908060090180546104449061202a565b80601f01602080910402602001604051908101604052809291908181526020018280546104709061202a565b80156104bd5780601f10610492576101008083540402835291602001916104bd565b820191906000526020600020905b8154815290600101906020018083116104a057829003601f168201915b505050505090508a565b6104cf611797565b6000821180156104e157506003548211155b610520576040517f08c379a0000000000000000000000000000000000000000000000000000000008152600401610517906120a7565b60405180910390fd5b600460008381526020019081526020016000206040518061014001604052908160008201548152602001600182015481526020016002820160009054906101000a900473ffffffffffffffffffffffffffffffffffffffff1673ffffffffffffffffffffffffffffffffffffffff1673ffffffffffffffffffffffffffffffffffffffff1681526020016003820160009054906101000a900473ffffffffffffffffffffffffffffffffffffffff1673ffffffffffffffffffffffffffffffffffffffff1673ffffffffffffffffffffffffffffffffffffffff1681526020016004820154815260200160058201548152602001600682015481526020016007820160009054906101000a900460ff16151515158152602001600882015481526020016009820180546106529061202a565b80601f016020809104026020016040519081016040528092919081815260200182805461067e9061202a565b80156106cb5780601f106106a0576101008083540402835291602001916106cb565b820191906000526020600020905b8154815290600101906020018083116106ae57829003601f168201915b5050505050815250509050919050565b60008054906101000a900473ffffffffffffffffffffffffffffffffffffffff1673ffffffffffffffffffffffffffffffffffffffff1663af65d74d336040518263ffffffff1660e01b815260040161073491906120c7565b602060405180830381865afa158015610751573d6000803e3d6000fd5b505050506040513d601f19601f82011682018060405250810190610775919061210e565b6107b4576040517f08c379a00000000000000000000000000000000000000000000000000000000081526004016107ab90612187565b60405180910390fd5b6000600260009054906101000a900473ffffffffffffffffffffffffffffffffffffffff1673ffffffffffffffffffffffffffffffffffffffff1663107a274a856040518263ffffffff1660e01b81526004016108119190611f28565b600060405180830381865afa15801561082e573d6000803e3d6000fd5b505050506040513d6000823e3d601f19601f82011682018060405250810190610857919061236c565b90508060e0015161089d576040517f08c379a000000000000000000000000000000000000000000000000000000000815260040161089490612401565b60405180910390fd5b60018160c0015160018111156108b6576108b5612421565b5b60ff16146108f9576040517f08c379a00000000000000000000000000000000000000000000000000000000081526004016108f0906124c2565b60405180910390fd5b60008060009054906101000a900473ffffffffffffffffffffffffffffffffffffffff1673ffffffffffffffffffffffffffffffffffffffff1663de9c86e1336040518263ffffffff1660e01b815260040161095591906120c7565b602060405180830381865afa158015610972573d6000803e3d6000fd5b505050506040513d601f19601f8201168201806040525081019061099691906124e2565b9050816020015181036109de576040517f08c379a00000000000000000000000000000000000000000000000000000000081526004016109d59061255b565b60405180910390fd5b8382606001511015610a25576040517f08c379a0000000000000000000000000000000000000000000000000000000008152600401610a1c906125c7565b60405180910390fd5b6000826080015185610a379190612616565b9050803414610a7b576040517f08c379a0000000000000000000000000000000000000000000000000000000008152600401610a72906126a4565b60405180910390fd5b600260009054906101000a900473ffffffffffffffffffffffffffffffffffffffff1673ffffffffffffffffffffffffffffffffffffffff1663ea4baba687876040518363ffffffff1660e01b8152600401610ad89291906126c4565b600060405180830381600087803b158015610af257600080fd5b505af1158015610b06573d6000803e3d6000fd5b505050506000836040015173ffffffffffffffffffffffffffffffffffffffff1634604051610b349061271e565b60006040518083038185875af1925050503d8060008114610b71576040519150601f19603f3d011682016040523d82523d6000602084013e610b76565b606091505b5050905080610bba576040517f08c379a0000000000000000000000000000000000000000000000000000000008152600401610bb19061277f565b60405180910390fd5b60036000815480929190610bcd9061279f565b919050555060405180610140016040528060035481526020018881526020013373ffffffffffffffffffffffffffffffffffffffff168152602001856040015173ffffffffffffffffffffffffffffffffffffffff1681526020018560200151815260200187815260200134815260200160001515815260200142815260200186815250600460006003548152602001908152602001600020600082015181600001556020820151816001015560408201518160020160006101000a81548173ffffffffffffffffffffffffffffffffffffffff021916908373ffffffffffffffffffffffffffffffffffffffff16021790555060608201518160030160006101000a81548173ffffffffffffffffffffffffffffffffffffffff021916908373ffffffffffffffffffffffffffffffffffffffff1602179055506080820151816004015560a0820151816005015560c0820151816006015560e08201518160070160006101000a81548160ff0219169083151502179055506101008201518160080155610120820151816009019081610d679190612989565b50905050600560003373ffffffffffffffffffffffffffffffffffffffff1673ffffffffffffffffffffffffffffffffffffffff1681526020019081526020016000206003549080600181540180825580915050600190039060005260206000200160009091909190915055600660008560200151815260200190815260200160002060035490806001815401808255809150506001900390600052602060002001600090919091909150556006600084815260200190815260200160002060035490806001815401808255809150506001900390600052602060002001600090919091909150553373ffffffffffffffffffffffffffffffffffffffff16876003547fffb6329ea8efe0cd823fc2f4e7edc9935227917a51e3e2c7c8644178444ae97487604001518a3442604051610ea39493929190612a5b565b60405180910390a450505050505050565b60008054906101000a900473ffffffffffffffffffffffffffffffffffffffff1681565b600160009054906101000a900473ffffffffffffffffffffffffffffffffffffffff1673ffffffffffffffffffffffffffffffffffffffff1663a230c524336040518263ffffffff1660e01b8152600401610f3391906120c7565b602060405180830381865afa158015610f50573d6000803e3d6000fd5b505050506040513d601f19601f82011682018060405250810190610f74919061210e565b610fb3576040517f08c379a0000000000000000000000000000000000000000000000000000000008152600401610faa90612aec565b60405180910390fd5b6000600260009054906101000a900473ffffffffffffffffffffffffffffffffffffffff1673ffffffffffffffffffffffffffffffffffffffff1663107a274a856040518263ffffffff1660e01b81526004016110109190611f28565b600060405180830381865afa15801561102d573d6000803e3d6000fd5b505050506040513d6000823e3d601f19601f82011682018060405250810190611056919061236c565b90508060e0015161109c576040517f08c379a000000000000000000000000000000000000000000000000000000000815260040161109390612401565b60405180910390fd5b60008160c0015160018111156110b5576110b4612421565b5b60ff16146110f8576040517f08c379a00000000000000000000000000000000000000000000000000000000081526004016110ef90612b7e565b60405180910390fd5b6000600160009054906101000a900473ffffffffffffffffffffffffffffffffffffffff1673ffffffffffffffffffffffffffffffffffffffff166309e85f37336040518263ffffffff1660e01b815260040161115591906120c7565b602060405180830381865afa158015611172573d6000803e3d6000fd5b505050506040513d601f19601f8201168201806040525081019061119691906124e2565b9050816020015181146111de576040517f08c379a00000000000000000000000000000000000000000000000000000000081526004016111d590612c10565b60405180910390fd5b8382606001511015611225576040517f08c379a000000000000000000000000000000000000000000000000000000000815260040161121c906125c7565b60405180910390fd5b60008260800151856112379190612616565b905080341461127b576040517f08c379a0000000000000000000000000000000000000000000000000000000008152600401611272906126a4565b60405180910390fd5b600260009054906101000a900473ffffffffffffffffffffffffffffffffffffffff1673ffffffffffffffffffffffffffffffffffffffff1663ea4baba687876040518363ffffffff1660e01b81526004016112d89291906126c4565b600060405180830381600087803b1580156112f257600080fd5b505af1158015611306573d6000803e3d6000fd5b505050506000836040015173ffffffffffffffffffffffffffffffffffffffff16346040516113349061271e565b60006040518083038185875af1925050503d8060008114611371576040519150601f19603f3d011682016040523d82523d6000602084013e611376565b606091505b50509050806113ba576040517f08c379a00000000000000000000000000000000000000000000000000000000081526004016113b19061277f565b60405180910390fd5b600360008154809291906113cd9061279f565b919050555060405180610140016040528060035481526020018881526020013373ffffffffffffffffffffffffffffffffffffffff168152602001856040015173ffffffffffffffffffffffffffffffffffffffff1681526020018560200151815260200187815260200134815260200160011515815260200142815260200186815250600460006003548152602001908152602001600020600082015181600001556020820151816001015560408201518160020160006101000a81548173ffffffffffffffffffffffffffffffffffffffff021916908373ffffffffffffffffffffffffffffffffffffffff16021790555060608201518160030160006101000a81548173ffffffffffffffffffffffffffffffffffffffff021916908373ffffffffffffffffffffffffffffffffffffffff1602179055506080820151816004015560a0820151816005015560c0820151816006015560e08201518160070160006101000a81548160ff02191690831515021790555061010082015181600801556101208201518160090190816115679190612989565b50905050600560003373ffffffffffffffffffffffffffffffffffffffff1673ffffffffffffffffffffffffffffffffffffffff1681526020019081526020016000206003549080600181540180825580915050600190039060005260206000200160009091909190915055600660008560200151815260200190815260200160002060035490806001815401808255809150506001900390600052602060002001600090919091909150553373ffffffffffffffffffffffffffffffffffffffff16876003547f6c7ed953baaf2b02a2b959cd45c076d84d321b250c4dee102406b2db96cefa8487604001518a34426040516116679493929190612a5b565b60405180910390a450505050505050565b6006602052816000526040600020818154811061169457600080fd5b90600052602060002001600091509150505481565b600160009054906101000a900473ffffffffffffffffffffffffffffffffffffffff1681565b60035481565b600260009054906101000a900473ffffffffffffffffffffffffffffffffffffffff1681565b60606006600083815260200190815260200160002080548060200260200160405190810160405280929190818152602001828054801561175a57602002820191906000526020600020905b815481526020019060010190808311611746575b50505050509050919050565b6005602052816000526040600020818154811061178257600080fd5b90600052602060002001600091509150505481565b6040518061014001604052806000815260200160008152602001600073ffffffffffffffffffffffffffffffffffffffff168152602001600073ffffffffffffffffffffffffffffffffffffffff16815260200160008152602001600081526020016000815260200160001515815260200160008152602001606081525090565b6000604051905090565b600080fd5b600080fd5b600073ffffffffffffffffffffffffffffffffffffffff82169050919050565b60006118578261182c565b9050919050565b6118678161184c565b811461187257600080fd5b50565b6000813590506118848161185e565b92915050565b6000602082840312156118a05761189f611822565b5b60006118ae84828501611875565b91505092915050565b600081519050919050565b600082825260208201905092915050565b6000819050602082019050919050565b6000819050919050565b6118f6816118e3565b82525050565b600061190883836118ed565b60208301905092915050565b6000602082019050919050565b600061192c826118b7565b61193681856118c2565b9350611941836118d3565b8060005b8381101561197257815161195988826118fc565b975061196483611914565b925050600181019050611945565b5085935050505092915050565b600060208201905081810360008301526119998184611921565b905092915050565b6119aa816118e3565b81146119b557600080fd5b50565b6000813590506119c7816119a1565b92915050565b6000602082840312156119e3576119e2611822565b5b60006119f1848285016119b8565b91505092915050565b611a03816118e3565b82525050565b611a128161184c565b82525050565b60008115159050919050565b611a2d81611a18565b82525050565b600081519050919050565b600082825260208201905092915050565b60005b83811015611a6d578082015181840152602081019050611a52565b60008484015250505050565b6000601f19601f8301169050919050565b6000611a9582611a33565b611a9f8185611a3e565b9350611aaf818560208601611a4f565b611ab881611a79565b840191505092915050565b600061014082019050611ad9600083018d6119fa565b611ae6602083018c6119fa565b611af3604083018b611a09565b611b00606083018a611a09565b611b0d60808301896119fa565b611b1a60a08301886119fa565b611b2760c08301876119fa565b611b3460e0830186611a24565b611b426101008301856119fa565b818103610120830152611b558184611a8a565b90509b9a5050505050505050505050565b611b6f8161184c565b82525050565b611b7e81611a18565b82525050565b600082825260208201905092915050565b6000611ba082611a33565b611baa8185611b84565b9350611bba818560208601611a4f565b611bc381611a79565b840191505092915050565b600061014083016000830151611be760008601826118ed565b506020830151611bfa60208601826118ed565b506040830151611c0d6040860182611b66565b506060830151611c206060860182611b66565b506080830151611c3360808601826118ed565b5060a0830151611c4660a08601826118ed565b5060c0830151611c5960c08601826118ed565b5060e0830151611c6c60e0860182611b75565b50610100830151611c816101008601826118ed565b50610120830151848203610120860152611c9b8282611b95565b9150508091505092915050565b60006020820190508181036000830152611cc28184611bce565b905092915050565b600080fd5b600080fd5b7f4e487b7100000000000000000000000000000000000000000000000000000000600052604160045260246000fd5b611d0c82611a79565b810181811067ffffffffffffffff82111715611d2b57611d2a611cd4565b5b80604052505050565b6000611d3e611818565b9050611d4a8282611d03565b919050565b600067ffffffffffffffff821115611d6a57611d69611cd4565b5b611d7382611a79565b9050602081019050919050565b82818337600083830152505050565b6000611da2611d9d84611d4f565b611d34565b905082815260208101848484011115611dbe57611dbd611ccf565b5b611dc9848285611d80565b509392505050565b600082601f830112611de657611de5611cca565b5b8135611df6848260208601611d8f565b91505092915050565b600080600060608486031215611e1857611e17611822565b5b6000611e26868287016119b8565b9350506020611e37868287016119b8565b925050604084013567ffffffffffffffff811115611e5857611e57611827565b5b611e6486828701611dd1565b9150509250925092565b6000819050919050565b6000611e93611e8e611e898461182c565b611e6e565b61182c565b9050919050565b6000611ea582611e78565b9050919050565b6000611eb782611e9a565b9050919050565b611ec781611eac565b82525050565b6000602082019050611ee26000830184611ebe565b92915050565b60008060408385031215611eff57611efe611822565b5b6000611f0d858286016119b8565b9250506020611f1e858286016119b8565b9150509250929050565b6000602082019050611f3d60008301846119fa565b92915050565b6000611f4e82611e9a565b9050919050565b611f5e81611f43565b82525050565b6000602082019050611f796000830184611f55565b92915050565b6000611f8a82611e9a565b9050919050565b611f9a81611f7f565b82525050565b6000602082019050611fb56000830184611f91565b92915050565b60008060408385031215611fd257611fd1611822565b5b6000611fe085828601611875565b9250506020611ff1858286016119b8565b9150509250929050565b7f4e487b7100000000000000000000000000000000000000000000000000000000600052602260045260246000fd5b6000600282049050600182168061204257607f821691505b60208210810361205557612054611ffb565b5b50919050565b7f547261646520646f6573206e6f74206578697374000000000000000000000000600082015250565b6000612091601483611a3e565b915061209c8261205b565b602082019050919050565b600060208201905081810360008301526120c081612084565b9050919050565b60006020820190506120dc6000830184611a09565b92915050565b6120eb81611a18565b81146120f657600080fd5b50565b600081519050612108816120e2565b92915050565b60006020828403121561212457612123611822565b5b6000612132848285016120f9565b91505092915050565b7f4e6f742061207265676973746572656420736f63696574790000000000000000600082015250565b6000612171601883611a3e565b915061217c8261213b565b602082019050919050565b600060208201905081810360008301526121a081612164565b9050919050565b600080fd5b600080fd5b6000815190506121c0816119a1565b92915050565b6000815190506121d58161185e565b92915050565b60006121ee6121e984611d4f565b611d34565b90508281526020810184848401111561220a57612209611ccf565b5b612215848285611a4f565b509392505050565b600082601f83011261223257612231611cca565b5b81516122428482602086016121db565b91505092915050565b6002811061225857600080fd5b50565b60008151905061226a8161224b565b92915050565b60006101208284031215612287576122866121a7565b5b612292610120611d34565b905060006122a2848285016121b1565b60008301525060206122b6848285016121b1565b60208301525060406122ca848285016121c6565b60408301525060606122de848285016121b1565b60608301525060806122f2848285016121b1565b60808301525060a082015167ffffffffffffffff811115612316576123156121ac565b5b6123228482850161221d565b60a08301525060c06123368482850161225b565b60c08301525060e061234a848285016120f9565b60e08301525061010061235f848285016121b1565b6101008301525092915050565b60006020828403121561238257612381611822565b5b600082015167ffffffffffffffff8111156123a05761239f611827565b5b6123ac84828501612270565b91505092915050565b7f4c697374696e67206973206e6f74206163746976650000000000000000000000600082015250565b60006123eb601583611a3e565b91506123f6826123b5565b602082019050919050565b6000602082019050818103600083015261241a816123de565b9050919050565b7f4e487b7100000000000000000000000000000000000000000000000000000000600052602160045260246000fd5b7f54686973206c697374696e67206973206e6f7420617661696c61626c6520666f60008201527f7220736f63696574696573000000000000000000000000000000000000000000602082015250565b60006124ac602b83611a3e565b91506124b782612450565b604082019050919050565b600060208201905081810360008301526124db8161249f565b9050919050565b6000602082840312156124f8576124f7611822565b5b6000612506848285016121b1565b91505092915050565b7f43616e6e6f74206275792066726f6d20796f7572206f776e206c697374696e67600082015250565b6000612545602083611a3e565b91506125508261250f565b602082019050919050565b6000602082019050818103600083015261257481612538565b9050919050565b7f4e6f7420656e6f756768206b576820617661696c61626c650000000000000000600082015250565b60006125b1601883611a3e565b91506125bc8261257b565b602082019050919050565b600060208201905081810360008301526125e0816125a4565b9050919050565b7f4e487b7100000000000000000000000000000000000000000000000000000000600052601160045260246000fd5b6000612621826118e3565b915061262c836118e3565b925082820261263a816118e3565b91508282048414831517612651576126506125e7565b5b5092915050565b7f496e636f72726563742045544820616d6f756e742073656e7400000000000000600082015250565b600061268e601983611a3e565b915061269982612658565b602082019050919050565b600060208201905081810360008301526126bd81612681565b9050919050565b60006040820190506126d960008301856119fa565b6126e660208301846119fa565b9392505050565b600081905092915050565b50565b60006127086000836126ed565b9150612713826126f8565b600082019050919050565b6000612729826126fb565b9150819050919050565b7f455448207472616e7366657220746f20736f6369657479206661696c65640000600082015250565b6000612769601e83611a3e565b915061277482612733565b602082019050919050565b600060208201905081810360008301526127988161275c565b9050919050565b60006127aa826118e3565b91507fffffffffffffffffffffffffffffffffffffffffffffffffffffffffffffffff82036127dc576127db6125e7565b5b600182019050919050565b60008190508160005260206000209050919050565b60006020601f8301049050919050565b600082821b905092915050565b6000600883026128497fffffffffffffffffffffffffffffffffffffffffffffffffffffffffffffffff8261280c565b612853868361280c565b95508019841693508086168417925050509392505050565b600061288661288161287c846118e3565b611e6e565b6118e3565b9050919050565b6000819050919050565b6128a08361286b565b6128b46128ac8261288d565b848454612819565b825550505050565b600090565b6128c96128bc565b6128d4818484612897565b505050565b5b818110156128f8576128ed6000826128c1565b6001810190506128da565b5050565b601f82111561293d5761290e816127e7565b612917846127fc565b81016020851015612926578190505b61293a612932856127fc565b8301826128d9565b50505b505050565b600082821c905092915050565b600061296060001984600802612942565b1980831691505092915050565b6000612979838361294f565b9150826002028217905092915050565b61299282611a33565b67ffffffffffffffff8111156129ab576129aa611cd4565b5b6129b5825461202a565b6129c08282856128fc565b600060209050601f8311600181146129f357600084156129e1578287015190505b6129eb858261296d565b865550612a53565b601f198416612a01866127e7565b60005b82811015612a2957848901518255600182019150602085019450602081019050612a04565b86831015612a465784890151612a42601f89168261294f565b8355505b6001600288020188555050505b505050505050565b6000608082019050612a706000830187611a09565b612a7d60208301866119fa565b612a8a60408301856119fa565b612a9760608301846119fa565b95945050505050565b7f4e6f7420612072656769737465726564206d656d626572000000000000000000600082015250565b6000612ad6601783611a3e565b9150612ae182612aa0565b602082019050919050565b60006020820190508181036000830152612b0581612ac9565b9050919050565b7f54686973206c697374696e67206973206e6f7420617661696c61626c6520666f60008201527f72206d656d626572730000000000000000000000000000000000000000000000602082015250565b6000612b68602983611a3e565b9150612b7382612b0c565b604082019050919050565b60006020820190508181036000830152612b9781612b5b565b9050919050565b7f596f752063616e206f6e6c79206275792066726f6d20796f7572206f776e207360008201527f6f63696574790000000000000000000000000000000000000000000000000000602082015250565b6000612bfa602683611a3e565b9150612c0582612b9e565b604082019050919050565b60006020820190508181036000830152612c2981612bed565b905091905056fea2646970667358221220c358e0bbec1941e7e39b94748a347d122c9e5923b942e23418b52018c6c4021864736f6c634300081c0033",
  "linkReferences": {},
  "deployedLinkReferences": {}
}