{
  "_format": "hh-sol-artifact-1",
  "contractName": "MemberRegistry",
  "sourceName": "contracts/MemberRegistry.sol",
  "abi": [
    {
      "inputs": [
        {
          "internalType": "address",
          "name": "_societyRegistryAddress",
          "type": "address"
        }
      ],
      "stateMutability": "nonpayable",
      "type": "constructor"
    },
    {
      "anonymous": false,
      "inputs": [
        {
          "indexed": true,
          "internalType": "uint256",
          "name": "id",
          "type": "uint256"
        },
        {
          "indexed": true,
          "internalType": "address",
          "name": "wallet",
          "type": "address"
        },
        {
          "indexed": true,
          "internalType": "uint256",
          "name": "societyId",
          "type": "uint256"
        },
        {
          "indexed": false,
          "internalType": "string",
          "name": "ipfsHash",
          "type": "string"
        },
        {
          "indexed": false,
          "internalType": "uint256",
          "name": "registeredAt",
          "type": "uint256"
        }
      ],
      "name": "MemberRegistered",
      "type": "event"
    },
    {
      "inputs": [
        {
          "internalType": "uint256",
          "name": "memberId",
          "type": "uint256"
        }
      ],
      "name": "getMember",
      "outputs": [
        {
          "components": [
            {
              "internalType": "uint256",
              "name": "id",
              "type": "uint256"
            },
            {
              "internalType": "string",
              "name": "ipfsHash",
              "type": "string"
            },
            {
              "internalType": "address",
              "name": "walletAddress",
              "type": "address"
            },
            {
              "internalType": "uint256",
              "name": "societyId",
              "type": "uint256"
            },
            {
              "internalType": "bool",
              "name": "isRegistered",
              "type": "bool"
            },
            {
              "internalType": "uint256",
              "name": "registeredAt",
              "type": "uint256"
            }
          ],
          "internalType": "struct MemberRegistry.Member",
          "name": "",
          "type": "tuple"
        }
      ],
      "stateMutability": "view",
      "type": "function"
    },
    {
      "inputs": [
        {
          "internalType": "address",
          "name": "wallet",
          "type": "address"
        }
      ],
      "name": "getMemberSocietyId",
      "outputs": [
        {
          "internalType": "uint256",
          "name": "",
          "type": "uint256"
        }
      ],
      "stateMutability": "view",
      "type": "function"
    },
    {
      "inputs": [
        {
          "internalType": "address",
          "name": "wallet",
          "type": "address"
        }
      ],
      "name": "isMember",
      "outputs": [
        {
          "internalType": "bool",
          "name": "",
          "type": "bool"
        }
      ],
      "stateMutability": "view",
      "type": "function"
    },
    {
      "inputs": [
        {
          "internalType": "uint256",
          "name": "",
          "type": "uint256"
        }
      ],
      "name": "memberById",
      "outputs": [
        {
          "internalType": "uint256",
          "name": "id",
          "type": "uint256"
        },
        {
          "internalType": "string",
          "name": "ipfsHash",
          "type": "string"
        },
        {
          "internalType": "address",
          "name": "walletAddress",
          "type": "address"
        },
        {
          "internalType": "uint256",
          "name": "societyId",
          "type": "uint256"
        },
        {
          "internalType": "bool",
          "name": "isRegistered",
          "type": "bool"
        },
        {
          "internalType": "uint256",
          "name": "registeredAt",
          "type": "uint256"
        }
      ],
      "stateMutability": "view",
      "type": "function"
    },
    {
      "inputs": [],
      "name": "memberCount",
      "outputs": [
        {
          "internalType": "uint256",
          "name": "",
          "type": "uint256"
        }
      ],
      "stateMutability": "view",
      "type": "function"
    },
    {
      "inputs": [
        {
          "internalType": "address",
          "name": "",
          "type": "address"
        }
      ],
      "name": "memberIdByAddress",
      "outputs": [
        {
          "internalType": "uint256",
          "name": "",
          "type": "uint256"
        }
      ],
      "stateMutability": "view",
      "type": "function"
    },
    {
      "inputs": [
        {
          "internalType": "string",
          "name": "ipfsHash",
          "type": "string"
        },
        {
          "internalType": "uint256",
          "name": "societyId",
          "type": "uint256"
        }
      ],
      "name": "registerMember",
      "outputs": [],
      "stateMutability": "nonpayable",
      "type": "function"
    },
    {
      "inputs": [],
      "name": "societyRegistry",
      "outputs": [
        {
          "internalType": "contract SocietyRegistry",
          "name": "",
          "type": "address"
        }
      ],
      "stateMutability": "view",
      "type": "function"
    }
  ],
  "bytecode": "0x6080604052600060015534801561001557600080fd5b506040516117ca3803806117ca833981810160405281019061003791906100e0565b806000806101000a81548173ffffffffffffffffffffffffffffffffffffffff021916908373ffffffffffffffffffffffffffffffffffffffff1602179055505061010d565b600080fd5b600073ffffffffffffffffffffffffffffffffffffffff82169050919050565b60006100ad82610082565b9050919050565b6100bd816100a2565b81146100c857600080fd5b50565b6000815190506100da816100b4565b92915050565b6000602082840312156100f6576100f561007d565b5b6000610104848285016100cb565b91505092915050565b6116ae8061011c6000396000f3fe608060405234801561001057600080fd5b50600436106100885760003560e01c8063463763131161005b5780634637631314610127578063a230c52414610145578063ab3545e514610175578063d92fc1f2146101a557610088565b806309e85f371461008d57806311aee380146100bd578063166de317146100db57806340c6a83b146100f7575b600080fd5b6100a760048036038101906100a29190610a20565b6101da565b6040516100b49190610a66565b60405180910390f35b6100c5610281565b6040516100d29190610a66565b60405180910390f35b6100f560048036038101906100f09190610bf3565b610287565b005b610111600480360381019061010c9190610a20565b61059b565b60405161011e9190610a66565b60405180910390f35b61012f6105b3565b60405161013c9190610cae565b60405180910390f35b61015f600480360381019061015a9190610a20565b6105d7565b60405161016c9190610ce4565b60405180910390f35b61018f600480360381019061018a9190610cff565b610623565b60405161019c9190610e61565b60405180910390f35b6101bf60048036038101906101ba9190610cff565b6107c2565b6040516101d196959493929190610edc565b60405180910390f35b600080600360008473ffffffffffffffffffffffffffffffffffffffff1673ffffffffffffffffffffffffffffffffffffffff16815260200190815260200160002054905060008103610262576040517f08c379a000000000000000000000000000000000000000000000000000000000815260040161025990610f90565b60405180910390fd5b6002600082815260200190815260200160002060030154915050919050565b60015481565b6000600360003373ffffffffffffffffffffffffffffffffffffffff1673ffffffffffffffffffffffffffffffffffffffff1681526020019081526020016000205414610309576040517f08c379a000000000000000000000000000000000000000000000000000000000815260040161030090610ffc565b60405180910390fd5b60008054906101000a900473ffffffffffffffffffffffffffffffffffffffff1673ffffffffffffffffffffffffffffffffffffffff1663af65d74d61034e836108b3565b6040518263ffffffff1660e01b815260040161036a919061101c565b602060405180830381865afa158015610387573d6000803e3d6000fd5b505050506040513d601f19601f820116820180604052508101906103ab9190611063565b6103ea576040517f08c379a00000000000000000000000000000000000000000000000000000000081526004016103e1906110dc565b60405180910390fd5b600160008154809291906103fd9061112b565b91905055506040518060c0016040528060015481526020018381526020013373ffffffffffffffffffffffffffffffffffffffff1681526020018281526020016001151581526020014281525060026000600154815260200190815260200160002060008201518160000155602082015181600101908161047e9190611375565b5060408201518160020160006101000a81548173ffffffffffffffffffffffffffffffffffffffff021916908373ffffffffffffffffffffffffffffffffffffffff1602179055506060820151816003015560808201518160040160006101000a81548160ff02191690831515021790555060a08201518160050155905050600154600360003373ffffffffffffffffffffffffffffffffffffffff1673ffffffffffffffffffffffffffffffffffffffff16815260200190815260200160002081905550803373ffffffffffffffffffffffffffffffffffffffff166001547fb16887852d60fa7027f818c9f2d65ffcfd7d2bcabb313206673af6428d200d6d854260405161058f929190611447565b60405180910390a45050565b60036020528060005260406000206000915090505481565b60008054906101000a900473ffffffffffffffffffffffffffffffffffffffff1681565b600080600360008473ffffffffffffffffffffffffffffffffffffffff1673ffffffffffffffffffffffffffffffffffffffff1681526020019081526020016000205414159050919050565b61062b610960565b60008211801561063d57506001548211155b61067c576040517f08c379a0000000000000000000000000000000000000000000000000000000008152600401610673906114c3565b60405180910390fd5b600260008381526020019081526020016000206040518060c0016040529081600082015481526020016001820180546106b4906111a2565b80601f01602080910402602001604051908101604052809291908181526020018280546106e0906111a2565b801561072d5780601f106107025761010080835404028352916020019161072d565b820191906000526020600020905b81548152906001019060200180831161071057829003601f168201915b505050505081526020016002820160009054906101000a900473ffffffffffffffffffffffffffffffffffffffff1673ffffffffffffffffffffffffffffffffffffffff1673ffffffffffffffffffffffffffffffffffffffff168152602001600382015481526020016004820160009054906101000a900460ff161515151581526020016005820154815250509050919050565b60026020528060005260406000206000915090508060000154908060010180546107eb906111a2565b80601f0160208091040260200160405190810160405280929190818152602001828054610817906111a2565b80156108645780601f1061083957610100808354040283529160200191610864565b820191906000526020600020905b81548152906001019060200180831161084757829003601f168201915b5050505050908060020160009054906101000a900473ffffffffffffffffffffffffffffffffffffffff16908060030154908060040160009054906101000a900460ff16908060050154905086565b60008060009054906101000a900473ffffffffffffffffffffffffffffffffffffffff1673ffffffffffffffffffffffffffffffffffffffff1663be5eeb2d836040518263ffffffff1660e01b815260040161090f9190610a66565b600060405180830381865afa15801561092c573d6000803e3d6000fd5b505050506040513d6000823e3d601f19601f82011682018060405250810190610955919061162f565b604001519050919050565b6040518060c001604052806000815260200160608152602001600073ffffffffffffffffffffffffffffffffffffffff16815260200160008152602001600015158152602001600081525090565b6000604051905090565b600080fd5b600080fd5b600073ffffffffffffffffffffffffffffffffffffffff82169050919050565b60006109ed826109c2565b9050919050565b6109fd816109e2565b8114610a0857600080fd5b50565b600081359050610a1a816109f4565b92915050565b600060208284031215610a3657610a356109b8565b5b6000610a4484828501610a0b565b91505092915050565b6000819050919050565b610a6081610a4d565b82525050565b6000602082019050610a7b6000830184610a57565b92915050565b600080fd5b600080fd5b6000601f19601f8301169050919050565b7f4e487b7100000000000000000000000000000000000000000000000000000000600052604160045260246000fd5b610ad482610a8b565b810181811067ffffffffffffffff82111715610af357610af2610a9c565b5b80604052505050565b6000610b066109ae565b9050610b128282610acb565b919050565b600067ffffffffffffffff821115610b3257610b31610a9c565b5b610b3b82610a8b565b9050602081019050919050565b82818337600083830152505050565b6000610b6a610b6584610b17565b610afc565b905082815260208101848484011115610b8657610b85610a86565b5b610b91848285610b48565b509392505050565b600082601f830112610bae57610bad610a81565b5b8135610bbe848260208601610b57565b91505092915050565b610bd081610a4d565b8114610bdb57600080fd5b50565b600081359050610bed81610bc7565b92915050565b60008060408385031215610c0a57610c096109b8565b5b600083013567ffffffffffffffff811115610c2857610c276109bd565b5b610c3485828601610b99565b9250506020610c4585828601610bde565b9150509250929050565b6000819050919050565b6000610c74610c6f610c6a846109c2565b610c4f565b6109c2565b9050919050565b6000610c8682610c59565b9050919050565b6000610c9882610c7b565b9050919050565b610ca881610c8d565b82525050565b6000602082019050610cc36000830184610c9f565b92915050565b60008115159050919050565b610cde81610cc9565b82525050565b6000602082019050610cf96000830184610cd5565b92915050565b600060208284031215610d1557610d146109b8565b5b6000610d2384828501610bde565b91505092915050565b610d3581610a4d565b82525050565b600081519050919050565b600082825260208201905092915050565b60005b83811015610d75578082015181840152602081019050610d5a565b60008484015250505050565b6000610d8c82610d3b565b610d968185610d46565b9350610da6818560208601610d57565b610daf81610a8b565b840191505092915050565b610dc3816109e2565b82525050565b610dd281610cc9565b82525050565b600060c083016000830151610df06000860182610d2c565b5060208301518482036020860152610e088282610d81565b9150506040830151610e1d6040860182610dba565b506060830151610e306060860182610d2c565b506080830151610e436080860182610dc9565b5060a0830151610e5660a0860182610d2c565b508091505092915050565b60006020820190508181036000830152610e7b8184610dd8565b905092915050565b600082825260208201905092915050565b6000610e9f82610d3b565b610ea98185610e83565b9350610eb9818560208601610d57565b610ec281610a8b565b840191505092915050565b610ed6816109e2565b82525050565b600060c082019050610ef16000830189610a57565b8181036020830152610f038188610e94565b9050610f126040830187610ecd565b610f1f6060830186610a57565b610f2c6080830185610cd5565b610f3960a0830184610a57565b979650505050505050565b7f4e6f7420612072656769737465726564206d656d626572000000000000000000600082015250565b6000610f7a601783610e83565b9150610f8582610f44565b602082019050919050565b60006020820190508181036000830152610fa981610f6d565b9050919050565b7f4d656d62657220616c7265616479207265676973746572656400000000000000600082015250565b6000610fe6601983610e83565b9150610ff182610fb0565b602082019050919050565b6000602082019050818103600083015261101581610fd9565b9050919050565b60006020820190506110316000830184610ecd565b92915050565b61104081610cc9565b811461104b57600080fd5b50565b60008151905061105d81611037565b92915050565b600060208284031215611079576110786109b8565b5b60006110878482850161104e565b91505092915050565b7f536f636965747920646f6573206e6f7420657869737400000000000000000000600082015250565b60006110c6601683610e83565b91506110d182611090565b602082019050919050565b600060208201905081810360008301526110f5816110b9565b9050919050565b7f4e487b7100000000000000000000000000000000000000000000000000000000600052601160045260246000fd5b600061113682610a4d565b91507fffffffffffffffffffffffffffffffffffffffffffffffffffffffffffffffff8203611168576111676110fc565b5b600182019050919050565b7f4e487b7100000000000000000000000000000000000000000000000000000000600052602260045260246000fd5b600060028204905060018216806111ba57607f821691505b6020821081036111cd576111cc611173565b5b50919050565b60008190508160005260206000209050919050565b60006020601f8301049050919050565b600082821b905092915050565b6000600883026112357fffffffffffffffffffffffffffffffffffffffffffffffffffffffffffffffff826111f8565b61123f86836111f8565b95508019841693508086168417925050509392505050565b600061127261126d61126884610a4d565b610c4f565b610a4d565b9050919050565b6000819050919050565b61128c83611257565b6112a061129882611279565b848454611205565b825550505050565b600090565b6112b56112a8565b6112c0818484611283565b505050565b5b818110156112e4576112d96000826112ad565b6001810190506112c6565b5050565b601f821115611329576112fa816111d3565b611303846111e8565b81016020851015611312578190505b61132661131e856111e8565b8301826112c5565b50505b505050565b600082821c905092915050565b600061134c6000198460080261132e565b1980831691505092915050565b6000611365838361133b565b9150826002028217905092915050565b61137e82610d3b565b67ffffffffffffffff81111561139757611396610a9c565b5b6113a182546111a2565b6113ac8282856112e8565b600060209050601f8311600181146113df57600084156113cd578287015190505b6113d78582611359565b86555061143f565b601f1984166113ed866111d3565b60005b82811015611415578489015182556001820191506020850194506020810190506113f0565b86831015611432578489015161142e601f89168261133b565b8355505b6001600288020188555050505b505050505050565b600060408201905081810360008301526114618185610e94565b90506114706020830184610a57565b9392505050565b7f4d656d62657220646f6573206e6f742065786973740000000000000000000000600082015250565b60006114ad601583610e83565b91506114b882611477565b602082019050919050565b600060208201905081810360008301526114dc816114a0565b9050919050565b600080fd5b600080fd5b6000815190506114fc81610bc7565b92915050565b600061151561151084610b17565b610afc565b90508281526020810184848401111561153157611530610a86565b5b61153c848285610d57565b509392505050565b600082601f83011261155957611558610a81565b5b8151611569848260208601611502565b91505092915050565b600081519050611581816109f4565b92915050565b600060a0828403121561159d5761159c6114e3565b5b6115a760a0610afc565b905060006115b7848285016114ed565b600083015250602082015167ffffffffffffffff8111156115db576115da6114e8565b5b6115e784828501611544565b60208301525060406115fb84828501611572565b604083015250606061160f8482850161104e565b6060830152506080611623848285016114ed565b60808301525092915050565b600060208284031215611645576116446109b8565b5b600082015167ffffffffffffffff811115611663576116626109bd565b5b61166f84828501611587565b9150509291505056fea264697066735822122015f1f2eab056b19256e36bbe7367f04f7079556da1c7ba1e2ae1a97d8d8f82ac64736f6c634300081c0033",
  "linkReferences": {},
  "deployedLinkReferences": {}
}