{
  "_format": "hh-sol-artifact-1",
  "contractName": "SocietyRegistry",
  "sourceName": "contracts/SocietyRegistry.sol",
  "abi": [
    {
      "anonymous": false,
      "inputs": [
        {
          "indexed": true,
          "internalType": "uint256",
          "name": "id",
          "type": "uint256"
        },
        {
          "indexed": true,
          "internalType": "address",
          "name": "wallet",
          "type": "address"
        },
        {
          "indexed": false,
          "internalType": "string",
          "name": "ipfsHash",
          "type": "string"
        },
        {
          "indexed": false,
          "internalType": "uint256",
          "name": "registeredAt",
          "type": "uint256"
        }
      ],
      "name": "SocietyRegistered",
      "type": "event"
    },
    {
      "inputs": [
        {
          "internalType": "uint256",
          "name": "societyId",
          "type": "uint256"
        }
      ],
      "name": "getSociety",
      "outputs": [
        {
          "components": [
            {
              "internalType": "uint256",
              "name": "id",
              "type": "uint256"
            },
            {
              "internalType": "string",
              "name": "ipfsHash",
              "type": "string"
            },
            {
              "internalType": "address",
              "name": "walletAddress",
              "type": "address"
            },
            {
              "internalType": "bool",
              "name": "isRegistered",
              "type": "bool"
            },
            {
              "internalType": "uint256",
              "name": "registeredAt",
              "type": "uint256"
            }
          ],
          "internalType": "struct SocietyRegistry.Society",
          "name": "",
          "type": "tuple"
        }
      ],
      "stateMutability": "view",
      "type": "function"
    },
    {
      "inputs": [
        {
          "internalType": "address",
          "name": "wallet",
          "type": "address"
        }
      ],
      "name": "getSocietyIdByAddress",
      "outputs": [
        {
          "internalType": "uint256",
          "name": "",
          "type": "uint256"
        }
      ],
      "stateMutability": "view",
      "type": "function"
    },
    {
      "inputs": [
        {
          "internalType": "address",
          "name": "wallet",
          "type": "address"
        }
      ],
      "name": "isSociety",
      "outputs": [
        {
          "internalType": "bool",
          "name": "",
          "type": "bool"
        }
      ],
      "stateMutability": "view",
      "type": "function"
    },
    {
      "inputs": [
        {
          "internalType": "string",
          "name": "ipfsHash",
          "type": "string"
        }
      ],
      "name": "registerSociety",
      "outputs": [],
      "stateMutability": "nonpayable",
      "type": "function"
    },
    {
      "inputs": [
        {
          "internalType": "uint256",
          "name": "",
          "type": "uint256"
        }
      ],
      "name": "societyById",
      "outputs": [
        {
          "internalType": "uint256",
          "name": "id",
          "type": "uint256"
        },
        {
          "internalType": "string",
          "name": "ipfsHash",
          "type": "string"
        },
        {
          "internalType": "address",
          "name": "walletAddress",
          "type": "address"
        },
        {
          "internalType": "bool",
          "name": "isRegistered",
          "type": "bool"
        },
        {
          "internalType": "uint256",
          "name": "registeredAt",
          "type": "uint256"
        }
      ],
      "stateMutability": "view",
      "type": "function"
    },
    {
      "inputs": [],
      "name": "societyCount",
      "outputs": [
        {
          "internalType": "uint256",
          "name": "",
          "type": "uint256"
        }
      ],
      "stateMutability": "view",
      "type": "function"
    },
    {
      "inputs": [
        {
          "internalType": "address",
          "name": "",
          "type": "address"
        }
      ],
      "name": "societyIdByAddress",
      "outputs": [
        {
          "internalType": "uint256",
          "name": "",
          "type": "uint256"
        }
      ],
      "stateMutability": "view",
      "type": "function"
    }
  ],
  "bytecode": "0x608060405260008055348015601357600080fd5b506110c4806100236000396000f3fe608060405234801561001057600080fd5b506004361061007d5760003560e01c8063be5eeb2d1161005b578063be5eeb2d146100fe578063c1f9f23e1461012e578063de9c86e114610162578063fbbcd38d146101925761007d565b80632df558da14610082578063af65d74d1461009e578063b99a6073146100ce575b600080fd5b61009c600480360381019061009791906108a3565b6101b0565b005b6100b860048036038101906100b3919061094a565b6103cf565b6040516100c59190610992565b60405180910390f35b6100e860048036038101906100e3919061094a565b61041b565b6040516100f591906109c6565b60405180910390f35b61011860048036038101906101139190610a0d565b610433565b6040516101259190610b5c565b60405180910390f35b61014860048036038101906101439190610a0d565b6105c8565b604051610159959493929190610bd7565b60405180910390f35b61017c6004803603810190610177919061094a565b6106b3565b60405161018991906109c6565b60405180910390f35b61019a6106fc565b6040516101a791906109c6565b60405180910390f35b6000600260003373ffffffffffffffffffffffffffffffffffffffff1673ffffffffffffffffffffffffffffffffffffffff1681526020019081526020016000205414610232576040517f08c379a000000000000000000000000000000000000000000000000000000000815260040161022990610c7d565b60405180910390fd5b60008081548092919061024490610ccc565b91905055506040518060a0016040528060005481526020018281526020013373ffffffffffffffffffffffffffffffffffffffff1681526020016001151581526020014281525060016000805481526020019081526020016000206000820151816000015560208201518160010190816102be9190610f20565b5060408201518160020160006101000a81548173ffffffffffffffffffffffffffffffffffffffff021916908373ffffffffffffffffffffffffffffffffffffffff16021790555060608201518160020160146101000a81548160ff02191690831515021790555060808201518160030155905050600054600260003373ffffffffffffffffffffffffffffffffffffffff1673ffffffffffffffffffffffffffffffffffffffff168152602001908152602001600020819055503373ffffffffffffffffffffffffffffffffffffffff166000547fa13b1779f4b010c6003f2b608219b3508e34305a521d525c9ad72a468b043e7583426040516103c4929190610ff2565b60405180910390a350565b600080600260008473ffffffffffffffffffffffffffffffffffffffff1673ffffffffffffffffffffffffffffffffffffffff1681526020019081526020016000205414159050919050565b60026020528060005260406000206000915090505481565b61043b610702565b60008211801561044d57506000548211155b61048c576040517f08c379a00000000000000000000000000000000000000000000000000000000081526004016104839061106e565b60405180910390fd5b600160008381526020019081526020016000206040518060a0016040529081600082015481526020016001820180546104c490610d43565b80601f01602080910402602001604051908101604052809291908181526020018280546104f090610d43565b801561053d5780601f106105125761010080835404028352916020019161053d565b820191906000526020600020905b81548152906001019060200180831161052057829003601f168201915b505050505081526020016002820160009054906101000a900473ffffffffffffffffffffffffffffffffffffffff1673ffffffffffffffffffffffffffffffffffffffff1673ffffffffffffffffffffffffffffffffffffffff1681526020016002820160149054906101000a900460ff161515151581526020016003820154815250509050919050565b60016020528060005260406000206000915090508060000154908060010180546105f190610d43565b80601f016020809104026020016040519081016040528092919081815260200182805461061d90610d43565b801561066a5780601f1061063f5761010080835404028352916020019161066a565b820191906000526020600020905b81548152906001019060200180831161064d57829003601f168201915b5050505050908060020160009054906101000a900473ffffffffffffffffffffffffffffffffffffffff16908060020160149054906101000a900460ff16908060030154905085565b6000600260008373ffffffffffffffffffffffffffffffffffffffff1673ffffffffffffffffffffffffffffffffffffffff168152602001908152602001600020549050919050565b60005481565b6040518060a001604052806000815260200160608152602001600073ffffffffffffffffffffffffffffffffffffffff168152602001600015158152602001600081525090565b6000604051905090565b600080fd5b600080fd5b600080fd5b600080fd5b6000601f19601f8301169050919050565b7f4e487b7100000000000000000000000000000000000000000000000000000000600052604160045260246000fd5b6107b082610767565b810181811067ffffffffffffffff821117156107cf576107ce610778565b5b80604052505050565b60006107e2610749565b90506107ee82826107a7565b919050565b600067ffffffffffffffff82111561080e5761080d610778565b5b61081782610767565b9050602081019050919050565b82818337600083830152505050565b6000610846610841846107f3565b6107d8565b90508281526020810184848401111561086257610861610762565b5b61086d848285610824565b509392505050565b600082601f83011261088a5761088961075d565b5b813561089a848260208601610833565b91505092915050565b6000602082840312156108b9576108b8610753565b5b600082013567ffffffffffffffff8111156108d7576108d6610758565b5b6108e384828501610875565b91505092915050565b600073ffffffffffffffffffffffffffffffffffffffff82169050919050565b6000610917826108ec565b9050919050565b6109278161090c565b811461093257600080fd5b50565b6000813590506109448161091e565b92915050565b6000602082840312156109605761095f610753565b5b600061096e84828501610935565b91505092915050565b60008115159050919050565b61098c81610977565b82525050565b60006020820190506109a76000830184610983565b92915050565b6000819050919050565b6109c0816109ad565b82525050565b60006020820190506109db60008301846109b7565b92915050565b6109ea816109ad565b81146109f557600080fd5b50565b600081359050610a07816109e1565b92915050565b600060208284031215610a2357610a22610753565b5b6000610a31848285016109f8565b91505092915050565b610a43816109ad565b82525050565b600081519050919050565b600082825260208201905092915050565b60005b83811015610a83578082015181840152602081019050610a68565b60008484015250505050565b6000610a9a82610a49565b610aa48185610a54565b9350610ab4818560208601610a65565b610abd81610767565b840191505092915050565b610ad18161090c565b82525050565b610ae081610977565b82525050565b600060a083016000830151610afe6000860182610a3a565b5060208301518482036020860152610b168282610a8f565b9150506040830151610b2b6040860182610ac8565b506060830151610b3e6060860182610ad7565b506080830151610b516080860182610a3a565b508091505092915050565b60006020820190508181036000830152610b768184610ae6565b905092915050565b600082825260208201905092915050565b6000610b9a82610a49565b610ba48185610b7e565b9350610bb4818560208601610a65565b610bbd81610767565b840191505092915050565b610bd18161090c565b82525050565b600060a082019050610bec60008301886109b7565b8181036020830152610bfe8187610b8f565b9050610c0d6040830186610bc8565b610c1a6060830185610983565b610c2760808301846109b7565b9695505050505050565b7f536f636965747920616c72656164792072656769737465726564000000000000600082015250565b6000610c67601a83610b7e565b9150610c7282610c31565b602082019050919050565b60006020820190508181036000830152610c9681610c5a565b9050919050565b7f4e487b7100000000000000000000000000000000000000000000000000000000600052601160045260246000fd5b6000610cd7826109ad565b91507fffffffffffffffffffffffffffffffffffffffffffffffffffffffffffffffff8203610d0957610d08610c9d565b5b600182019050919050565b7f4e487b7100000000000000000000000000000000000000000000000000000000600052602260045260246000fd5b60006002820490506001821680610d5b57607f821691505b602082108103610d6e57610d6d610d14565b5b50919050565b60008190508160005260206000209050919050565b60006020601f8301049050919050565b600082821b905092915050565b600060088302610dd67fffffffffffffffffffffffffffffffffffffffffffffffffffffffffffffffff82610d99565b610de08683610d99565b95508019841693508086168417925050509392505050565b6000819050919050565b6000610e1d610e18610e13846109ad565b610df8565b6109ad565b9050919050565b6000819050919050565b610e3783610e02565b610e4b610e4382610e24565b848454610da6565b825550505050565b600090565b610e60610e53565b610e6b818484610e2e565b505050565b5b81811015610e8f57610e84600082610e58565b600181019050610e71565b5050565b601f821115610ed457610ea581610d74565b610eae84610d89565b81016020851015610ebd578190505b610ed1610ec985610d89565b830182610e70565b50505b505050565b600082821c905092915050565b6000610ef760001984600802610ed9565b1980831691505092915050565b6000610f108383610ee6565b9150826002028217905092915050565b610f2982610a49565b67ffffffffffffffff811115610f4257610f41610778565b5b610f4c8254610d43565b610f57828285610e93565b600060209050601f831160018114610f8a5760008415610f78578287015190505b610f828582610f04565b865550610fea565b601f198416610f9886610d74565b60005b82811015610fc057848901518255600182019150602085019450602081019050610f9b565b86831015610fdd5784890151610fd9601f891682610ee6565b8355505b6001600288020188555050505b505050505050565b6000604082019050818103600083015261100c8185610b8f565b905061101b60208301846109b7565b9392505050565b7f536f636965747920646f6573206e6f7420657869737400000000000000000000600082015250565b6000611058601683610b7e565b915061106382611022565b602082019050919050565b600060208201905081810360008301526110878161104b565b905091905056fea264697066735822122013e3f09d12dbf4bc3086aa21911741e4c65b4bd93774ab4802049cd424c3a65764736f6c634300081c0033",
  "linkReferences": {},
  "deployedLinkReferences": {}
}